{
  "fileName": "DarkForestCore.sol",
  "contractName": "DarkForestCore",
  "source": "// SPDX-License-Identifier: UNLICENSED\npragma solidity ^0.6.9;\npragma experimental ABIEncoderV2;\n\n// Import base Initializable contract\nimport \"@openzeppelin/contracts-upgradeable/proxy/Initializable.sol\";\nimport \"@openzeppelin/contracts-upgradeable/math/SafeMathUpgradeable.sol\";\nimport \"@openzeppelin/contracts-upgradeable/math/MathUpgradeable.sol\";\nimport \"./Verifier.sol\";\nimport \"./DarkForestStorageV1.sol\";\nimport \"./DarkForestTokens.sol\";\nimport \"./DarkForestUtils.sol\";\nimport \"./DarkForestPlanet.sol\";\nimport \"./DarkForestLazyUpdate.sol\";\nimport \"./DarkForestInitialize.sol\";\n\n// .______       _______     ___       _______  .___  ___.  _______\n// |   _  \\     |   ____|   /   \\     |       \\ |   \\/   | |   ____|\n// |  |_)  |    |  |__     /  ^  \\    |  .--.  ||  \\  /  | |  |__\n// |      /     |   __|   /  /_\\  \\   |  |  |  ||  |\\/|  | |   __|\n// |  |\\  \\----.|  |____ /  _____  \\  |  '--'  ||  |  |  | |  |____\n// | _| `._____||_______/__/     \\__\\ |_______/ |__|  |__| |_______|\n//\n// READ THIS FIRST BEFORE EDITING ANYTHING IN THIS FILE:\n// https://docs.openzeppelin.com/learn/upgrading-smart-contracts#limitations-of-contract-upgrades\n//\n// DO NOT ADD ANY STORAGE VARIABLES IN THIS FILE\n// IT SHOULD BELONG AT STORAGE CONTRACTS\n// ADDING STORAGE VARIABLES HERE WI LL BLOCK ANY STORAGE CONTRACTS FROM EVER\n// ADDING THEIR OWN VARIABLES EVER AGAIN.\n\ncontract DarkForestCore is Initializable, DarkForestStorageV1 {\n    using ABDKMath64x64 for *;\n    using SafeMathUpgradeable for *;\n    using MathUpgradeable for uint256;\n\n    event PlayerInitialized(address player, uint256 loc);\n    event ArrivalQueued(uint256 arrivalId);\n    event PlanetUpgraded(uint256 loc);\n    event BoughtHat(uint256 loc);\n    event PlanetTransferred(uint256 loc, address player);\n    event FoundArtifact(uint256 loc, address player, uint256 artifactId);\n    event DepositedArtifact(uint256 loc, address player, uint256 artifactId);\n    event WithdrewArtifact(uint256 loc, address player, uint256 artifactId);\n\n    function initialize(\n        address _adminAddress,\n        address payable _whitelistAddress,\n        address payable _tokensAddress,\n        bool _disableZKCheck\n    ) public initializer {\n        adminAddress = _adminAddress;\n        whitelist = Whitelist(_whitelistAddress);\n        tokens = DarkForestTokens(_tokensAddress);\n\n        paused = false;\n\n        DISABLE_ZK_CHECK = _disableZKCheck;\n\n        tokenMintEndTimestamp = 1611584314; // a month from contract deploy - 01/25/21 2:18:34 GMT\n        target4RadiusConstant = 800;\n\n        planetLevelThresholds = [\n            16777216,\n            4194256,\n            1048516,\n            262081,\n            65472,\n            16320,\n            4032,\n            960\n        ];\n\n        DarkForestInitialize.initializeDefaults(planetDefaultStats);\n        DarkForestInitialize.initializeUpgrades(upgrades);\n\n        initializedPlanetCountByLevel = [0, 0, 0, 0, 0, 0, 0, 0];\n        for (uint256 i = 0; i < planetLevelThresholds.length; i += 1) {\n            cumulativeRarities.push(\n                (2**24 / planetLevelThresholds[i]) * PLANET_RARITY\n            );\n        }\n\n        _updateWorldRadius();\n    }\n\n    //////////////////////\n    /// ACCESS CONTROL ///\n    //////////////////////\n    modifier onlyAdmin() {\n        require(msg.sender == adminAddress, \"Sender is not a game master\");\n        _;\n    }\n\n    modifier onlyWhitelisted() {\n        require(\n            whitelist.isWhitelisted(msg.sender),\n            \"Player is not whitelisted\"\n        );\n        _;\n    }\n\n    modifier notPaused() {\n        require(!paused, \"Game is paused\");\n        _;\n    }\n\n    modifier notTokenEnded() {\n        require(\n            block.timestamp < tokenMintEndTimestamp,\n            \"Token mint period has ended\"\n        );\n        _;\n    }\n\n    function changeAdmin(address _newAdmin) public onlyAdmin {\n        require(_newAdmin != address(0), \"newOwner cannot be 0x0\");\n        adminAddress = _newAdmin;\n    }\n\n    /////////////////////////////\n    /// Administrative Engine ///\n    /////////////////////////////\n\n    function pause() public onlyAdmin {\n        require(!paused, \"Game is already paused\");\n        paused = true;\n    }\n\n    function unpause() public onlyAdmin {\n        require(paused, \"Game is already unpaused\");\n        paused = false;\n    }\n\n    function changeTokenMintEndTime(uint256 _newEnd) public onlyAdmin {\n        tokenMintEndTimestamp = _newEnd;\n    }\n\n    function changeTarget4RadiusConstant(uint256 _newConstant)\n        public\n        onlyAdmin\n    {\n        target4RadiusConstant = _newConstant;\n        _updateWorldRadius();\n    }\n\n    function withdraw() public onlyAdmin {\n        msg.sender.transfer(address(this).balance);\n    }\n\n    //////////////\n    /// Helper ///\n    //////////////\n\n    // Public helper getters\n    function getNPlanets() public view returns (uint256) {\n        return planetIds.length;\n    }\n\n    function bulkGetPlanetIds(uint256 startIdx, uint256 endIdx)\n        public\n        view\n        returns (uint256[] memory ret)\n    {\n        // return slice of planetIds array from startIdx through endIdx - 1\n        ret = new uint256[](endIdx - startIdx);\n        for (uint256 i = startIdx; i < endIdx; i++) {\n            ret[i - startIdx] = planetIds[i];\n        }\n    }\n\n    function bulkGetPlanetsByIds(uint256[] calldata ids)\n        public\n        view\n        returns (DarkForestTypes.Planet[] memory ret)\n    {\n        ret = new DarkForestTypes.Planet[](ids.length);\n\n        for (uint256 i = 0; i < ids.length; i++) {\n            ret[i] = planets[ids[i]];\n        }\n    }\n\n    function bulkGetPlanetArrivalsByIds(uint256[] calldata ids)\n        public\n        view\n        returns (DarkForestTypes.ArrivalData[][] memory)\n    {\n\n            DarkForestTypes.ArrivalData[][] memory ret\n         = new DarkForestTypes.ArrivalData[][](ids.length);\n\n        for (uint256 i = 0; i < ids.length; i++) {\n            ret[i] = getPlanetArrivals(ids[i]);\n        }\n\n        return ret;\n    }\n\n    // this is meant to be called by a subgraph indexer at the exact timestamp\n    // that a newly-initiated arrival occurs.\n    // without it, in order to retrieve the most recent state of the from- and to-planets\n    // we have to make five contract calls per new arrival id: arrival data by id, and\n    // both planets and planetsExtendedInfo for both from- and to-planets\n    // with this we just have to make one call, since only owner/pop/silver would be modified\n    function bulkGetCompactArrivalsByIds(uint256[] calldata ids)\n        public\n        view\n        returns (DarkForestTypes.CompactArrival[] memory ret)\n    {\n        ret = new DarkForestTypes.CompactArrival[](ids.length);\n\n        for (uint256 i = 0; i < ids.length; i++) {\n            DarkForestTypes.ArrivalData memory arrival = planetArrivals[ids[i]];\n            DarkForestTypes.Planet memory from = planets[arrival.fromPlanet];\n            DarkForestTypes.Planet memory to = planets[arrival.toPlanet];\n            ret[i] = DarkForestTypes.CompactArrival({\n                popArriving: arrival.popArriving,\n                silverMoved: arrival.silverMoved,\n                departureTime: arrival.departureTime,\n                arrivalTime: arrival.arrivalTime,\n                fromPlanet: arrival.fromPlanet,\n                fromPlanetOwner: from.owner,\n                fromPlanetPopulation: from.population,\n                fromPlanetSilver: from.silver,\n                toPlanet: arrival.toPlanet,\n                toPlanetOwner: to.owner,\n                toPlanetPopulation: to.population,\n                toPlanetSilver: to.silver\n            });\n        }\n    }\n\n    function bulkGetPlanetsExtendedInfoByIds(uint256[] calldata ids)\n        public\n        view\n        returns (DarkForestTypes.PlanetExtendedInfo[] memory ret)\n    {\n        ret = new DarkForestTypes.PlanetExtendedInfo[](ids.length);\n\n        for (uint256 i = 0; i < ids.length; i++) {\n            ret[i] = planetsExtendedInfo[ids[i]];\n        }\n    }\n\n    function bulkGetPlanets(uint256 startIdx, uint256 endIdx)\n        public\n        view\n        returns (DarkForestTypes.Planet[] memory ret)\n    {\n        // return array of planets corresponding to planetIds[startIdx] through planetIds[endIdx - 1]\n        ret = new DarkForestTypes.Planet[](endIdx - startIdx);\n        for (uint256 i = startIdx; i < endIdx; i++) {\n            ret[i - startIdx] = planets[planetIds[i]];\n        }\n    }\n\n    function bulkGetPlanetsExtendedInfo(uint256 startIdx, uint256 endIdx)\n        public\n        view\n        returns (DarkForestTypes.PlanetExtendedInfo[] memory ret)\n    {\n        // return array of planets corresponding to planetIds[startIdx] through planetIds[endIdx - 1]\n        ret = new DarkForestTypes.PlanetExtendedInfo[](endIdx - startIdx);\n        for (uint256 i = startIdx; i < endIdx; i++) {\n            ret[i - startIdx] = planetsExtendedInfo[planetIds[i]];\n        }\n    }\n\n    function getNPlayers() public view returns (uint256) {\n        return playerIds.length;\n    }\n\n    function bulkGetPlayers(uint256 startIdx, uint256 endIdx)\n        public\n        view\n        returns (address[] memory ret)\n    {\n        // return slice of players array from startIdx through endIdx - 1\n        ret = new address[](endIdx - startIdx);\n        for (uint256 i = startIdx; i < endIdx; i++) {\n            ret[i - startIdx] = playerIds[i];\n        }\n    }\n\n    function getPlanetLevelThresholds() public view returns (uint256[] memory) {\n        return planetLevelThresholds;\n    }\n\n    function getPlanetCumulativeRarities()\n        public\n        view\n        returns (uint256[] memory)\n    {\n        return cumulativeRarities;\n    }\n\n    function getPlanetArrivals(uint256 _location)\n        public\n        view\n        returns (DarkForestTypes.ArrivalData[] memory ret)\n    {\n        uint256 arrivalCount = 0;\n        for (uint256 i = 0; i < planetEvents[_location].length; i += 1) {\n            if (\n                planetEvents[_location][i].eventType ==\n                DarkForestTypes.PlanetEventType.ARRIVAL\n            ) {\n                arrivalCount += 1;\n            }\n        }\n        ret = new DarkForestTypes.ArrivalData[](arrivalCount);\n        uint256 count = 0;\n        for (uint256 i = 0; i < planetEvents[_location].length; i += 1) {\n            if (\n                planetEvents[_location][i].eventType ==\n                DarkForestTypes.PlanetEventType.ARRIVAL\n            ) {\n                ret[count] = planetArrivals[planetEvents[_location][i].id];\n                count++;\n            }\n        }\n    }\n\n    function bulkGetPlanetArrivals(uint256 startIdx, uint256 endIdx)\n        public\n        view\n        returns (DarkForestTypes.ArrivalData[][] memory)\n    {\n        // return array of planets corresponding to planetIds[startIdx] through planetIds[endIdx - 1]\n\n\n            DarkForestTypes.ArrivalData[][] memory ret\n         = new DarkForestTypes.ArrivalData[][](endIdx - startIdx);\n        for (uint256 i = startIdx; i < endIdx; i++) {\n            ret[i - startIdx] = getPlanetArrivals(planetIds[i]);\n        }\n        return ret;\n    }\n\n    function getDefaultStats()\n        public\n        view\n        returns (DarkForestTypes.PlanetDefaultStats[] memory)\n    {\n\n            DarkForestTypes.PlanetDefaultStats[] memory ret\n         = new DarkForestTypes.PlanetDefaultStats[](\n            planetLevelThresholds.length\n        );\n        for (uint256 i = 0; i < planetLevelThresholds.length; i += 1) {\n            ret[i] = planetDefaultStats[i];\n        }\n        return ret;\n    }\n\n    function getUpgrades()\n        public\n        view\n        returns (DarkForestTypes.Upgrade[4][3] memory)\n    {\n        return upgrades;\n    }\n\n    function getPlayerArtifactIds(address playerId)\n        public\n        view\n        returns (uint256[] memory)\n    {\n        return tokens.getPlayerArtifactIds(playerId);\n    }\n\n    function doesArtifactExist(uint256 tokenId) public view returns (bool) {\n        return tokens.doesArtifactExist(tokenId);\n    }\n\n    function getArtifactById(uint256 artifactId)\n        public\n        view\n        returns (DarkForestTypes.ArtifactWithMetadata memory ret)\n    {\n        DarkForestTypes.Artifact memory artifact = tokens.getArtifact(\n            artifactId\n        );\n        DarkForestTypes.Upgrade memory upgrade = DarkForestUtils\n            ._getUpgradeForArtifact(artifact);\n        ret = DarkForestTypes.ArtifactWithMetadata({\n            artifact: artifact,\n            upgrade: upgrade,\n            owner: tokens.ownerOf(artifact.id),\n            locationId: contractOwnedArtifactLocations[artifact.id]\n        });\n    }\n\n    function bulkGetArtifactsByIds(uint256[] calldata ids)\n        public\n        view\n        returns (DarkForestTypes.ArtifactWithMetadata[] memory ret)\n    {\n        ret = new DarkForestTypes.ArtifactWithMetadata[](ids.length);\n\n        for (uint256 i = 0; i < ids.length; i++) {\n            DarkForestTypes.Artifact memory artifact = tokens.getArtifact(\n                ids[i]\n            );\n            DarkForestTypes.Upgrade memory upgrade = DarkForestUtils\n                ._getUpgradeForArtifact(artifact);\n            ret[i] = DarkForestTypes.ArtifactWithMetadata({\n                artifact: artifact,\n                upgrade: upgrade,\n                owner: tokens.ownerOf(artifact.id),\n                locationId: contractOwnedArtifactLocations[artifact.id]\n            });\n        }\n    }\n\n    // private utilities\n\n    function _locationIdValid(uint256 _loc) public pure returns (bool) {\n        return (_loc <\n            (21888242871839275222246405745257275088548364400416034343698204186575808495617 /\n                PLANET_RARITY));\n    }\n\n    // Private helpers that modify state\n    function _updateWorldRadius() private {\n        worldRadius = DarkForestUtils._getRadius(\n            initializedPlanetCountByLevel,\n            cumulativeRarities,\n            playerIds.length,\n            target4RadiusConstant\n        );\n    }\n\n    function _initializePlanet(\n        uint256 _location,\n        uint256 _perlin,\n        bool _isHomePlanet\n    ) private {\n        require(_locationIdValid(_location), \"Not a valid planet location\");\n\n        (\n            uint256 _level,\n            DarkForestTypes.PlanetResource _resource\n        ) = DarkForestUtils._getPlanetLevelAndResource(\n            _location,\n            _perlin,\n            PERLIN_THRESHOLD_1,\n            PERLIN_THRESHOLD_2,\n            SILVER_RARITY_1,\n            SILVER_RARITY_2,\n            SILVER_RARITY_3,\n            planetLevelThresholds,\n            planetDefaultStats\n        );\n\n        if (_isHomePlanet) {\n            require(_level == 0, \"Can only initialize on planet level 0\");\n        }\n\n        DarkForestPlanet.initializePlanet(\n            planets[_location],\n            planetsExtendedInfo[_location],\n            planetDefaultStats[_level],\n            _perlin,\n            TIME_FACTOR_HUNDREDTHS,\n            PERLIN_THRESHOLD_1,\n            PERLIN_THRESHOLD_2,\n            _resource,\n            _level,\n            _location\n        );\n        planetIds.push(_location);\n        initializedPlanetCountByLevel[_level] += 1;\n    }\n\n    //////////////////////\n    /// Game Mechanics ///\n    //////////////////////\n\n    function refreshPlanet(uint256 _location) public onlyWhitelisted notPaused {\n        DarkForestPlanet.refreshPlanet(\n            _location,\n            planets,\n            planetsExtendedInfo,\n            planetEvents,\n            planetArrivals\n        );\n    }\n\n    function initializePlayer(\n        uint256[2] memory _a,\n        uint256[2][2] memory _b,\n        uint256[2] memory _c,\n        uint256[3] memory _input\n    ) public onlyWhitelisted notPaused returns (uint256) {\n        if (!DISABLE_ZK_CHECK) {\n            require(\n                Verifier.verifyInitProof(_a, _b, _c, _input),\n                \"Failed init proof check\"\n            );\n        }\n\n        uint256 _location = _input[0];\n        uint256 _perlin = _input[1];\n        uint256 _radius = _input[2];\n\n        require(\n            DarkForestPlanet.checkInit(\n                _location,\n                _perlin,\n                _radius,\n                isPlayerInitialized,\n                planetsExtendedInfo,\n                worldRadius,\n                PERLIN_THRESHOLD_1\n            )\n        );\n\n        // Initialize player data\n        isPlayerInitialized[msg.sender] = true;\n        playerIds.push(msg.sender);\n\n        // Initialize planet information\n        _initializePlanet(_location, _perlin, true);\n        planets[_location].owner = msg.sender;\n        planets[_location].population = 50000;\n        _updateWorldRadius();\n        emit PlayerInitialized(msg.sender, _location);\n        return _location;\n    }\n\n    function move(\n        uint256[2] memory _a,\n        uint256[2][2] memory _b,\n        uint256[2] memory _c,\n        uint256[7] memory _input\n    ) public notPaused returns (uint256) {\n        uint256 _oldLoc = _input[0];\n        uint256 _newLoc = _input[1];\n        uint256 _newPerlin = _input[2];\n        uint256 _newRadius = _input[3];\n        uint256 _maxDist = _input[4];\n        uint256 _popMoved = _input[5];\n        uint256 _silverMoved = _input[6];\n\n        if (!DISABLE_ZK_CHECK) {\n            uint256[5] memory _proofInput = [\n                _oldLoc,\n                _newLoc,\n                _newPerlin,\n                _newRadius,\n                _maxDist\n            ];\n            require(\n                Verifier.verifyMoveProof(_a, _b, _c, _proofInput),\n                \"Failed move proof check\"\n            );\n        }\n\n        // check radius\n        require(_newRadius <= worldRadius, \"Attempting to move out of bounds\");\n\n        // Only perform if the toPlanet have never initialized previously\n        if (!planetsExtendedInfo[_newLoc].isInitialized) {\n            _initializePlanet(_newLoc, _newPerlin, false);\n        } else {\n            // need to do this so people can't deny service to planets with gas limit\n            refreshPlanet(_newLoc);\n            uint8 arrivalsFromOwner = 0;\n            uint8 arrivalsFromOthers = 0;\n            for (uint8 i = 0; i < planetEvents[_newLoc].length; i++) {\n                if (\n                    planetEvents[_newLoc][i].eventType ==\n                    DarkForestTypes.PlanetEventType.ARRIVAL\n                ) {\n                    if (\n                        planetArrivals[planetEvents[_newLoc][i].id].player ==\n                        planets[_newLoc].owner\n                    ) {\n                        arrivalsFromOwner++;\n                    } else {\n                        arrivalsFromOthers++;\n                    }\n                }\n            }\n            if (msg.sender == planets[_newLoc].owner) {\n                require(arrivalsFromOwner < 6, \"Planet is rate-limited\");\n            } else {\n                require(arrivalsFromOthers < 6, \"Planet is rate-limited\");\n            }\n        }\n\n        // Refresh fromPlanet first before doing any action on it\n        refreshPlanet(_oldLoc);\n        DarkForestPlanet.move(\n            _oldLoc,\n            _newLoc,\n            _maxDist,\n            _popMoved,\n            _silverMoved,\n            planetEventsCount,\n            planets,\n            planetsExtendedInfo,\n            planetEvents,\n            planetArrivals\n        );\n\n        planetEventsCount++;\n\n        _updateWorldRadius();\n        emit ArrivalQueued(planetEventsCount - 1);\n        return (planetEventsCount - 1);\n    }\n\n    function upgradePlanet(uint256 _location, uint256 _branch)\n        public\n        notPaused\n        returns (uint256, uint256)\n    {\n        // _branch specifies which of the three upgrade branches player is leveling up\n        // 0 improves silver production and capacity\n        // 1 improves population\n        // 2 improves range\n        refreshPlanet(_location);\n        DarkForestPlanet.upgradePlanet(\n            _location,\n            _branch,\n            planets,\n            planetsExtendedInfo,\n            planetDefaultStats,\n            upgrades\n        );\n        emit PlanetUpgraded(_location);\n        return (_location, _branch);\n    }\n\n    function transferOwnership(uint256 _location, address _player)\n        public\n        notPaused\n    {\n        require(\n            planetsExtendedInfo[_location].isInitialized == true,\n            \"Planet is not initialized\"\n        );\n\n        refreshPlanet(_location);\n\n        require(\n            planets[_location].owner == msg.sender,\n            \"Only owner can transfer planet\"\n        );\n\n        require(_player != msg.sender, \"Cannot self\");\n\n        require(\n            isPlayerInitialized[_player],\n            \"not initialized\"\n        );\n\n        planets[_location].owner = _player;\n\n        emit PlanetTransferred(_location, _player);\n    }\n\n    function buyHat(uint256 _location) public payable {\n        require(\n            planetsExtendedInfo[_location].isInitialized == true,\n            \"not initialized\"\n        );\n\n        refreshPlanet(_location);\n\n        require(\n            planets[_location].owner == msg.sender,\n            \"Only owner\"\n        );\n\n        uint256 cost = (1 << planetsExtendedInfo[_location].hatLevel) * 1 ether;\n\n        require(msg.value >= cost, \"Insufficient\");\n\n        planetsExtendedInfo[_location].hatLevel += 1;\n        emit BoughtHat(_location);\n    }\n\n    function findArtifact(\n        uint256[2] memory _a,\n        uint256[2][2] memory _b,\n        uint256[2] memory _c,\n        uint256[2] memory _input\n    ) public notPaused notTokenEnded {\n        uint256 planetId = _input[0];\n        uint256 biomebase = _input[1];\n\n        refreshPlanet(planetId);\n        DarkForestTypes.Planet storage planet = planets[planetId];\n\n\n            DarkForestTypes.PlanetExtendedInfo storage info\n         = planetsExtendedInfo[planetId];\n        DarkForestTypes.Biome biome = DarkForestUtils._getBiome(\n            info.spaceType,\n            biomebase,\n            BIOME_THRESHOLD_1,\n            BIOME_THRESHOLD_2\n        );\n\n        if (!DISABLE_ZK_CHECK) {\n            require(\n                Verifier.verifyBiomebaseProof(_a, _b, _c, _input),\n                \"biome zkSNARK failed\"\n            );\n        }\n\n        require(\n            DarkForestUtils._isPlanetMineable(planetId, planet.planetLevel),\n            \"can not\"\n        );\n        require(!info.hasTriedFindingArtifact, \"plundered\");\n        require(\n            planet.owner == msg.sender,\n            \"you can only find artifacts on planets you own\"\n        );\n        require(\n            (planet.population * 100) / planet.populationCap > 95,\n            \"must 95% energy\"\n        );\n        require(\n            planet.planetResource == DarkForestTypes.PlanetResource.NONE,\n            \"silver mine\"\n        );\n\n        info.hasTriedFindingArtifact = true;\n\n        uint256 artifactSeed = DarkForestUtils._artifactSeed(\n            planetId,\n            planetEventsCount,\n            planetId\n        );\n        (\n            DarkForestTypes.ArtifactType artifactType,\n            uint256 levelBonus\n        ) = DarkForestUtils._randomArtifactTypeAndLevelBonus(artifactSeed);\n\n        DarkForestTypes.Artifact memory foundArtifact = tokens.createArtifact(\n            artifactSeed,\n            msg.sender,\n            planetId,\n            planet.planetLevel,\n            levelBonus,\n            biome,\n            artifactType\n        );\n\n        DarkForestPlanet._putArtifactOnPlanet(\n            tokens,\n            foundArtifact.id,\n            planetId,\n            planet,\n            info,\n            contractOwnedArtifactLocations\n        );\n\n        emit FoundArtifact(planetId, msg.sender, foundArtifact.id);\n        return;\n    }\n\n    function depositArtifact(uint256 locationId, uint256 artifactId)\n        public\n        notPaused\n    {\n        // should this be implemented as logic that is triggered when a player sends\n        // an artifact to the contract with locationId in the extra data?\n        // might be better use of the ERC721 standard - can use safeTransfer then\n        refreshPlanet(locationId);\n        DarkForestTypes.Planet storage planet = planets[locationId];\n\n\n            DarkForestTypes.PlanetExtendedInfo storage planetInfo\n         = planetsExtendedInfo[locationId];\n\n        require(\n            tokens.ownerOf(artifactId) == msg.sender,\n            \"not yours 1\"\n        );\n        require(\n            planet.owner == msg.sender,\n            \"not yours 2\"\n        );\n        require(\n            planetInfo.heldArtifactId == 0,\n            \"already has\"\n        );\n        require(\n            planet.planetResource == DarkForestTypes.PlanetResource.NONE,\n            \"silver mine\"\n        );\n\n        DarkForestPlanet._putArtifactOnPlanet(\n            tokens,\n            artifactId,\n            locationId,\n            planet,\n            planetInfo,\n            contractOwnedArtifactLocations\n        );\n        emit DepositedArtifact(locationId, msg.sender, artifactId);\n        return;\n    }\n\n    function withdrawArtifact(uint256 locationId) public notPaused {\n        refreshPlanet(locationId);\n        DarkForestTypes.Planet storage planet = planets[locationId];\n\n\n            DarkForestTypes.PlanetExtendedInfo storage planetInfo\n         = planetsExtendedInfo[locationId];\n\n        uint256 artifactId = planetInfo.heldArtifactId;\n\n        require(\n            planet.owner == msg.sender,\n            \"Not yours\"\n        );\n        require(artifactId != 0, \"No artifact\");\n        require(\n            block.timestamp >\n                planetInfo.artifactLockedTimestamp +\n                    ARTIFACT_LOCKUP_DURATION_SECONDS,\n            \"lockup\"\n        );\n\n        DarkForestPlanet._takeArtifactOffPlanet(\n            tokens,\n            address(this),\n            planet,\n            planetInfo,\n            contractOwnedArtifactLocations\n        );\n        emit WithdrewArtifact(locationId, msg.sender, artifactId);\n        return;\n    }\n}\n",
  "sourcePath": "contracts/DarkForestCore.sol",
  "abi": [
    {
      "anonymous": false,
      "inputs": [
        {
          "indexed": false,
          "internalType": "uint256",
          "name": "arrivalId",
          "type": "uint256"
        }
      ],
      "name": "ArrivalQueued",
      "type": "event"
    },
    {
      "anonymous": false,
      "inputs": [
        {
          "indexed": false,
          "internalType": "uint256",
          "name": "loc",
          "type": "uint256"
        }
      ],
      "name": "BoughtHat",
      "type": "event"
    },
    {
      "anonymous": false,
      "inputs": [
        {
          "indexed": false,
          "internalType": "uint256",
          "name": "loc",
          "type": "uint256"
        },
        {
          "indexed": false,
          "internalType": "address",
          "name": "player",
          "type": "address"
        },
        {
          "indexed": false,
          "internalType": "uint256",
          "name": "artifactId",
          "type": "uint256"
        }
      ],
      "name": "DepositedArtifact",
      "type": "event"
    },
    {
      "anonymous": false,
      "inputs": [
        {
          "indexed": false,
          "internalType": "uint256",
          "name": "loc",
          "type": "uint256"
        },
        {
          "indexed": false,
          "internalType": "address",
          "name": "player",
          "type": "address"
        },
        {
          "indexed": false,
          "internalType": "uint256",
          "name": "artifactId",
          "type": "uint256"
        }
      ],
      "name": "FoundArtifact",
      "type": "event"
    },
    {
      "anonymous": false,
      "inputs": [
        {
          "indexed": false,
          "internalType": "uint256",
          "name": "loc",
          "type": "uint256"
        },
        {
          "indexed": false,
          "internalType": "address",
          "name": "player",
          "type": "address"
        }
      ],
      "name": "PlanetTransferred",
      "type": "event"
    },
    {
      "anonymous": false,
      "inputs": [
        {
          "indexed": false,
          "internalType": "uint256",
          "name": "loc",
          "type": "uint256"
        }
      ],
      "name": "PlanetUpgraded",
      "type": "event"
    },
    {
      "anonymous": false,
      "inputs": [
        {
          "indexed": false,
          "internalType": "address",
          "name": "player",
          "type": "address"
        },
        {
          "indexed": false,
          "internalType": "uint256",
          "name": "loc",
          "type": "uint256"
        }
      ],
      "name": "PlayerInitialized",
      "type": "event"
    },
    {
      "anonymous": false,
      "inputs": [
        {
          "indexed": false,
          "internalType": "uint256",
          "name": "loc",
          "type": "uint256"
        },
        {
          "indexed": false,
          "internalType": "address",
          "name": "player",
          "type": "address"
        },
        {
          "indexed": false,
          "internalType": "uint256",
          "name": "artifactId",
          "type": "uint256"
        }
      ],
      "name": "WithdrewArtifact",
      "type": "event"
    },
    {
      "inputs": [],
      "name": "ARTIFACT_LOCKUP_DURATION_SECONDS",
      "outputs": [
        {
          "internalType": "uint256",
          "name": "",
          "type": "uint256"
        }
      ],
      "stateMutability": "view",
      "type": "function"
    },
    {
      "inputs": [],
      "name": "BIOME_THRESHOLD_1",
      "outputs": [
        {
          "internalType": "uint256",
          "name": "",
          "type": "uint256"
        }
      ],
      "stateMutability": "view",
      "type": "function"
    },
    {
      "inputs": [],
      "name": "BIOME_THRESHOLD_2",
      "outputs": [
        {
          "internalType": "uint256",
          "name": "",
          "type": "uint256"
        }
      ],
      "stateMutability": "view",
      "type": "function"
    },
    {
      "inputs": [],
      "name": "DISABLE_ZK_CHECK",
      "outputs": [
        {
          "internalType": "bool",
          "name": "",
          "type": "bool"
        }
      ],
      "stateMutability": "view",
      "type": "function"
    },
    {
      "inputs": [],
      "name": "PERLIN_THRESHOLD_1",
      "outputs": [
        {
          "internalType": "uint256",
          "name": "",
          "type": "uint256"
        }
      ],
      "stateMutability": "view",
      "type": "function"
    },
    {
      "inputs": [],
      "name": "PERLIN_THRESHOLD_2",
      "outputs": [
        {
          "internalType": "uint256",
          "name": "",
          "type": "uint256"
        }
      ],
      "stateMutability": "view",
      "type": "function"
    },
    {
      "inputs": [],
      "name": "PLANET_RARITY",
      "outputs": [
        {
          "internalType": "uint256",
          "name": "",
          "type": "uint256"
        }
      ],
      "stateMutability": "view",
      "type": "function"
    },
    {
      "inputs": [],
      "name": "SILVER_RARITY_1",
      "outputs": [
        {
          "internalType": "uint256",
          "name": "",
          "type": "uint256"
        }
      ],
      "stateMutability": "view",
      "type": "function"
    },
    {
      "inputs": [],
      "name": "SILVER_RARITY_2",
      "outputs": [
        {
          "internalType": "uint256",
          "name": "",
          "type": "uint256"
        }
      ],
      "stateMutability": "view",
      "type": "function"
    },
    {
      "inputs": [],
      "name": "SILVER_RARITY_3",
      "outputs": [
        {
          "internalType": "uint256",
          "name": "",
          "type": "uint256"
        }
      ],
      "stateMutability": "view",
      "type": "function"
    },
    {
      "inputs": [],
      "name": "TIME_FACTOR_HUNDREDTHS",
      "outputs": [
        {
          "internalType": "uint256",
          "name": "",
          "type": "uint256"
        }
      ],
      "stateMutability": "view",
      "type": "function"
    },
    {
      "inputs": [
        {
          "internalType": "uint256",
          "name": "_loc",
          "type": "uint256"
        }
      ],
      "name": "_locationIdValid",
      "outputs": [
        {
          "internalType": "bool",
          "name": "",
          "type": "bool"
        }
      ],
      "stateMutability": "pure",
      "type": "function"
    },
    {
      "inputs": [],
      "name": "adminAddress",
      "outputs": [
        {
          "internalType": "address",
          "name": "",
          "type": "address"
        }
      ],
      "stateMutability": "view",
      "type": "function"
    },
    {
      "inputs": [
        {
          "internalType": "uint256[]",
          "name": "ids",
          "type": "uint256[]"
        }
      ],
      "name": "bulkGetArtifactsByIds",
      "outputs": [
        {
          "components": [
            {
              "components": [
                {
                  "internalType": "uint256",
                  "name": "id",
                  "type": "uint256"
                },
                {
                  "internalType": "uint256",
                  "name": "planetDiscoveredOn",
                  "type": "uint256"
                },
                {
                  "internalType": "uint256",
                  "name": "planetLevel",
                  "type": "uint256"
                },
                {
                  "internalType": "enum DarkForestTypes.Biome",
                  "name": "planetBiome",
                  "type": "uint8"
                },
                {
                  "internalType": "uint256",
                  "name": "mintedAtTimestamp",
                  "type": "uint256"
                },
                {
                  "internalType": "address",
                  "name": "discoverer",
                  "type": "address"
                },
                {
                  "internalType": "enum DarkForestTypes.ArtifactType",
                  "name": "artifactType",
                  "type": "uint8"
                }
              ],
              "internalType": "struct DarkForestTypes.Artifact",
              "name": "artifact",
              "type": "tuple"
            },
            {
              "components": [
                {
                  "internalType": "uint256",
                  "name": "popCapMultiplier",
                  "type": "uint256"
                },
                {
                  "internalType": "uint256",
                  "name": "popGroMultiplier",
                  "type": "uint256"
                },
                {
                  "internalType": "uint256",
                  "name": "rangeMultiplier",
                  "type": "uint256"
                },
                {
                  "internalType": "uint256",
                  "name": "speedMultiplier",
                  "type": "uint256"
                },
                {
                  "internalType": "uint256",
                  "name": "defMultiplier",
                  "type": "uint256"
                }
              ],
              "internalType": "struct DarkForestTypes.Upgrade",
              "name": "upgrade",
              "type": "tuple"
            },
            {
              "internalType": "address",
              "name": "owner",
              "type": "address"
            },
            {
              "internalType": "uint256",
              "name": "locationId",
              "type": "uint256"
            }
          ],
          "internalType": "struct DarkForestTypes.ArtifactWithMetadata[]",
          "name": "ret",
          "type": "tuple[]"
        }
      ],
      "stateMutability": "view",
      "type": "function"
    },
    {
      "inputs": [
        {
          "internalType": "uint256[]",
          "name": "ids",
          "type": "uint256[]"
        }
      ],
      "name": "bulkGetCompactArrivalsByIds",
      "outputs": [
        {
          "components": [
            {
              "internalType": "uint256",
              "name": "popArriving",
              "type": "uint256"
            },
            {
              "internalType": "uint256",
              "name": "silverMoved",
              "type": "uint256"
            },
            {
              "internalType": "uint256",
              "name": "departureTime",
              "type": "uint256"
            },
            {
              "internalType": "uint256",
              "name": "arrivalTime",
              "type": "uint256"
            },
            {
              "internalType": "uint256",
              "name": "fromPlanet",
              "type": "uint256"
            },
            {
              "internalType": "address",
              "name": "fromPlanetOwner",
              "type": "address"
            },
            {
              "internalType": "uint256",
              "name": "fromPlanetPopulation",
              "type": "uint256"
            },
            {
              "internalType": "uint256",
              "name": "fromPlanetSilver",
              "type": "uint256"
            },
            {
              "internalType": "uint256",
              "name": "toPlanet",
              "type": "uint256"
            },
            {
              "internalType": "address",
              "name": "toPlanetOwner",
              "type": "address"
            },
            {
              "internalType": "uint256",
              "name": "toPlanetPopulation",
              "type": "uint256"
            },
            {
              "internalType": "uint256",
              "name": "toPlanetSilver",
              "type": "uint256"
            }
          ],
          "internalType": "struct DarkForestTypes.CompactArrival[]",
          "name": "ret",
          "type": "tuple[]"
        }
      ],
      "stateMutability": "view",
      "type": "function"
    },
    {
      "inputs": [
        {
          "internalType": "uint256",
          "name": "startIdx",
          "type": "uint256"
        },
        {
          "internalType": "uint256",
          "name": "endIdx",
          "type": "uint256"
        }
      ],
      "name": "bulkGetPlanetArrivals",
      "outputs": [
        {
          "components": [
            {
              "internalType": "uint256",
              "name": "id",
              "type": "uint256"
            },
            {
              "internalType": "address",
              "name": "player",
              "type": "address"
            },
            {
              "internalType": "uint256",
              "name": "fromPlanet",
              "type": "uint256"
            },
            {
              "internalType": "uint256",
              "name": "toPlanet",
              "type": "uint256"
            },
            {
              "internalType": "uint256",
              "name": "popArriving",
              "type": "uint256"
            },
            {
              "internalType": "uint256",
              "name": "silverMoved",
              "type": "uint256"
            },
            {
              "internalType": "uint256",
              "name": "departureTime",
              "type": "uint256"
            },
            {
              "internalType": "uint256",
              "name": "arrivalTime",
              "type": "uint256"
            }
          ],
          "internalType": "struct DarkForestTypes.ArrivalData[][]",
          "name": "",
          "type": "tuple[][]"
        }
      ],
      "stateMutability": "view",
      "type": "function"
    },
    {
      "inputs": [
        {
          "internalType": "uint256[]",
          "name": "ids",
          "type": "uint256[]"
        }
      ],
      "name": "bulkGetPlanetArrivalsByIds",
      "outputs": [
        {
          "components": [
            {
              "internalType": "uint256",
              "name": "id",
              "type": "uint256"
            },
            {
              "internalType": "address",
              "name": "player",
              "type": "address"
            },
            {
              "internalType": "uint256",
              "name": "fromPlanet",
              "type": "uint256"
            },
            {
              "internalType": "uint256",
              "name": "toPlanet",
              "type": "uint256"
            },
            {
              "internalType": "uint256",
              "name": "popArriving",
              "type": "uint256"
            },
            {
              "internalType": "uint256",
              "name": "silverMoved",
              "type": "uint256"
            },
            {
              "internalType": "uint256",
              "name": "departureTime",
              "type": "uint256"
            },
            {
              "internalType": "uint256",
              "name": "arrivalTime",
              "type": "uint256"
            }
          ],
          "internalType": "struct DarkForestTypes.ArrivalData[][]",
          "name": "",
          "type": "tuple[][]"
        }
      ],
      "stateMutability": "view",
      "type": "function"
    },
    {
      "inputs": [
        {
          "internalType": "uint256",
          "name": "startIdx",
          "type": "uint256"
        },
        {
          "internalType": "uint256",
          "name": "endIdx",
          "type": "uint256"
        }
      ],
      "name": "bulkGetPlanetIds",
      "outputs": [
        {
          "internalType": "uint256[]",
          "name": "ret",
          "type": "uint256[]"
        }
      ],
      "stateMutability": "view",
      "type": "function"
    },
    {
      "inputs": [
        {
          "internalType": "uint256",
          "name": "startIdx",
          "type": "uint256"
        },
        {
          "internalType": "uint256",
          "name": "endIdx",
          "type": "uint256"
        }
      ],
      "name": "bulkGetPlanets",
      "outputs": [
        {
          "components": [
            {
              "internalType": "address",
              "name": "owner",
              "type": "address"
            },
            {
              "internalType": "uint256",
              "name": "range",
              "type": "uint256"
            },
            {
              "internalType": "uint256",
              "name": "speed",
              "type": "uint256"
            },
            {
              "internalType": "uint256",
              "name": "defense",
              "type": "uint256"
            },
            {
              "internalType": "uint256",
              "name": "population",
              "type": "uint256"
            },
            {
              "internalType": "uint256",
              "name": "populationCap",
              "type": "uint256"
            },
            {
              "internalType": "uint256",
              "name": "populationGrowth",
              "type": "uint256"
            },
            {
              "internalType": "enum DarkForestTypes.PlanetResource",
              "name": "planetResource",
              "type": "uint8"
            },
            {
              "internalType": "uint256",
              "name": "silverCap",
              "type": "uint256"
            },
            {
              "internalType": "uint256",
              "name": "silverGrowth",
              "type": "uint256"
            },
            {
              "internalType": "uint256",
              "name": "silver",
              "type": "uint256"
            },
            {
              "internalType": "uint256",
              "name": "planetLevel",
              "type": "uint256"
            }
          ],
          "internalType": "struct DarkForestTypes.Planet[]",
          "name": "ret",
          "type": "tuple[]"
        }
      ],
      "stateMutability": "view",
      "type": "function"
    },
    {
      "inputs": [
        {
          "internalType": "uint256[]",
          "name": "ids",
          "type": "uint256[]"
        }
      ],
      "name": "bulkGetPlanetsByIds",
      "outputs": [
        {
          "components": [
            {
              "internalType": "address",
              "name": "owner",
              "type": "address"
            },
            {
              "internalType": "uint256",
              "name": "range",
              "type": "uint256"
            },
            {
              "internalType": "uint256",
              "name": "speed",
              "type": "uint256"
            },
            {
              "internalType": "uint256",
              "name": "defense",
              "type": "uint256"
            },
            {
              "internalType": "uint256",
              "name": "population",
              "type": "uint256"
            },
            {
              "internalType": "uint256",
              "name": "populationCap",
              "type": "uint256"
            },
            {
              "internalType": "uint256",
              "name": "populationGrowth",
              "type": "uint256"
            },
            {
              "internalType": "enum DarkForestTypes.PlanetResource",
              "name": "planetResource",
              "type": "uint8"
            },
            {
              "internalType": "uint256",
              "name": "silverCap",
              "type": "uint256"
            },
            {
              "internalType": "uint256",
              "name": "silverGrowth",
              "type": "uint256"
            },
            {
              "internalType": "uint256",
              "name": "silver",
              "type": "uint256"
            },
            {
              "internalType": "uint256",
              "name": "planetLevel",
              "type": "uint256"
            }
          ],
          "internalType": "struct DarkForestTypes.Planet[]",
          "name": "ret",
          "type": "tuple[]"
        }
      ],
      "stateMutability": "view",
      "type": "function"
    },
    {
      "inputs": [
        {
          "internalType": "uint256",
          "name": "startIdx",
          "type": "uint256"
        },
        {
          "internalType": "uint256",
          "name": "endIdx",
          "type": "uint256"
        }
      ],
      "name": "bulkGetPlanetsExtendedInfo",
      "outputs": [
        {
          "components": [
            {
              "internalType": "bool",
              "name": "isInitialized",
              "type": "bool"
            },
            {
              "internalType": "uint256",
              "name": "createdAt",
              "type": "uint256"
            },
            {
              "internalType": "uint256",
              "name": "lastUpdated",
              "type": "uint256"
            },
            {
              "internalType": "uint256",
              "name": "perlin",
              "type": "uint256"
            },
            {
              "internalType": "enum DarkForestTypes.SpaceType",
              "name": "spaceType",
              "type": "uint8"
            },
            {
              "internalType": "uint256",
              "name": "upgradeState0",
              "type": "uint256"
            },
            {
              "internalType": "uint256",
              "name": "upgradeState1",
              "type": "uint256"
            },
            {
              "internalType": "uint256",
              "name": "upgradeState2",
              "type": "uint256"
            },
            {
              "internalType": "uint256",
              "name": "hatLevel",
              "type": "uint256"
            },
            {
              "internalType": "bool",
              "name": "hasTriedFindingArtifact",
              "type": "bool"
            },
            {
              "internalType": "uint256",
              "name": "heldArtifactId",
              "type": "uint256"
            },
            {
              "internalType": "uint256",
              "name": "artifactLockedTimestamp",
              "type": "uint256"
            }
          ],
          "internalType": "struct DarkForestTypes.PlanetExtendedInfo[]",
          "name": "ret",
          "type": "tuple[]"
        }
      ],
      "stateMutability": "view",
      "type": "function"
    },
    {
      "inputs": [
        {
          "internalType": "uint256[]",
          "name": "ids",
          "type": "uint256[]"
        }
      ],
      "name": "bulkGetPlanetsExtendedInfoByIds",
      "outputs": [
        {
          "components": [
            {
              "internalType": "bool",
              "name": "isInitialized",
              "type": "bool"
            },
            {
              "internalType": "uint256",
              "name": "createdAt",
              "type": "uint256"
            },
            {
              "internalType": "uint256",
              "name": "lastUpdated",
              "type": "uint256"
            },
            {
              "internalType": "uint256",
              "name": "perlin",
              "type": "uint256"
            },
            {
              "internalType": "enum DarkForestTypes.SpaceType",
              "name": "spaceType",
              "type": "uint8"
            },
            {
              "internalType": "uint256",
              "name": "upgradeState0",
              "type": "uint256"
            },
            {
              "internalType": "uint256",
              "name": "upgradeState1",
              "type": "uint256"
            },
            {
              "internalType": "uint256",
              "name": "upgradeState2",
              "type": "uint256"
            },
            {
              "internalType": "uint256",
              "name": "hatLevel",
              "type": "uint256"
            },
            {
              "internalType": "bool",
              "name": "hasTriedFindingArtifact",
              "type": "bool"
            },
            {
              "internalType": "uint256",
              "name": "heldArtifactId",
              "type": "uint256"
            },
            {
              "internalType": "uint256",
              "name": "artifactLockedTimestamp",
              "type": "uint256"
            }
          ],
          "internalType": "struct DarkForestTypes.PlanetExtendedInfo[]",
          "name": "ret",
          "type": "tuple[]"
        }
      ],
      "stateMutability": "view",
      "type": "function"
    },
    {
      "inputs": [
        {
          "internalType": "uint256",
          "name": "startIdx",
          "type": "uint256"
        },
        {
          "internalType": "uint256",
          "name": "endIdx",
          "type": "uint256"
        }
      ],
      "name": "bulkGetPlayers",
      "outputs": [
        {
          "internalType": "address[]",
          "name": "ret",
          "type": "address[]"
        }
      ],
      "stateMutability": "view",
      "type": "function"
    },
    {
      "inputs": [
        {
          "internalType": "uint256",
          "name": "_location",
          "type": "uint256"
        }
      ],
      "name": "buyHat",
      "outputs": [],
      "stateMutability": "payable",
      "type": "function"
    },
    {
      "inputs": [
        {
          "internalType": "address",
          "name": "_newAdmin",
          "type": "address"
        }
      ],
      "name": "changeAdmin",
      "outputs": [],
      "stateMutability": "nonpayable",
      "type": "function"
    },
    {
      "inputs": [
        {
          "internalType": "uint256",
          "name": "_newConstant",
          "type": "uint256"
        }
      ],
      "name": "changeTarget4RadiusConstant",
      "outputs": [],
      "stateMutability": "nonpayable",
      "type": "function"
    },
    {
      "inputs": [
        {
          "internalType": "uint256",
          "name": "_newEnd",
          "type": "uint256"
        }
      ],
      "name": "changeTokenMintEndTime",
      "outputs": [],
      "stateMutability": "nonpayable",
      "type": "function"
    },
    {
      "inputs": [
        {
          "internalType": "uint256",
          "name": "",
          "type": "uint256"
        }
      ],
      "name": "contractOwnedArtifactLocations",
      "outputs": [
        {
          "internalType": "uint256",
          "name": "",
          "type": "uint256"
        }
      ],
      "stateMutability": "view",
      "type": "function"
    },
    {
      "inputs": [
        {
          "internalType": "uint256",
          "name": "",
          "type": "uint256"
        }
      ],
      "name": "cumulativeRarities",
      "outputs": [
        {
          "internalType": "uint256",
          "name": "",
          "type": "uint256"
        }
      ],
      "stateMutability": "view",
      "type": "function"
    },
    {
      "inputs": [
        {
          "internalType": "uint256",
          "name": "locationId",
          "type": "uint256"
        },
        {
          "internalType": "uint256",
          "name": "artifactId",
          "type": "uint256"
        }
      ],
      "name": "depositArtifact",
      "outputs": [],
      "stateMutability": "nonpayable",
      "type": "function"
    },
    {
      "inputs": [
        {
          "internalType": "uint256",
          "name": "tokenId",
          "type": "uint256"
        }
      ],
      "name": "doesArtifactExist",
      "outputs": [
        {
          "internalType": "bool",
          "name": "",
          "type": "bool"
        }
      ],
      "stateMutability": "view",
      "type": "function"
    },
    {
      "inputs": [
        {
          "internalType": "uint256[2]",
          "name": "_a",
          "type": "uint256[2]"
        },
        {
          "internalType": "uint256[2][2]",
          "name": "_b",
          "type": "uint256[2][2]"
        },
        {
          "internalType": "uint256[2]",
          "name": "_c",
          "type": "uint256[2]"
        },
        {
          "internalType": "uint256[2]",
          "name": "_input",
          "type": "uint256[2]"
        }
      ],
      "name": "findArtifact",
      "outputs": [],
      "stateMutability": "nonpayable",
      "type": "function"
    },
    {
      "inputs": [
        {
          "internalType": "uint256",
          "name": "artifactId",
          "type": "uint256"
        }
      ],
      "name": "getArtifactById",
      "outputs": [
        {
          "components": [
            {
              "components": [
                {
                  "internalType": "uint256",
                  "name": "id",
                  "type": "uint256"
                },
                {
                  "internalType": "uint256",
                  "name": "planetDiscoveredOn",
                  "type": "uint256"
                },
                {
                  "internalType": "uint256",
                  "name": "planetLevel",
                  "type": "uint256"
                },
                {
                  "internalType": "enum DarkForestTypes.Biome",
                  "name": "planetBiome",
                  "type": "uint8"
                },
                {
                  "internalType": "uint256",
                  "name": "mintedAtTimestamp",
                  "type": "uint256"
                },
                {
                  "internalType": "address",
                  "name": "discoverer",
                  "type": "address"
                },
                {
                  "internalType": "enum DarkForestTypes.ArtifactType",
                  "name": "artifactType",
                  "type": "uint8"
                }
              ],
              "internalType": "struct DarkForestTypes.Artifact",
              "name": "artifact",
              "type": "tuple"
            },
            {
              "components": [
                {
                  "internalType": "uint256",
                  "name": "popCapMultiplier",
                  "type": "uint256"
                },
                {
                  "internalType": "uint256",
                  "name": "popGroMultiplier",
                  "type": "uint256"
                },
                {
                  "internalType": "uint256",
                  "name": "rangeMultiplier",
                  "type": "uint256"
                },
                {
                  "internalType": "uint256",
                  "name": "speedMultiplier",
                  "type": "uint256"
                },
                {
                  "internalType": "uint256",
                  "name": "defMultiplier",
                  "type": "uint256"
                }
              ],
              "internalType": "struct DarkForestTypes.Upgrade",
              "name": "upgrade",
              "type": "tuple"
            },
            {
              "internalType": "address",
              "name": "owner",
              "type": "address"
            },
            {
              "internalType": "uint256",
              "name": "locationId",
              "type": "uint256"
            }
          ],
          "internalType": "struct DarkForestTypes.ArtifactWithMetadata",
          "name": "ret",
          "type": "tuple"
        }
      ],
      "stateMutability": "view",
      "type": "function"
    },
    {
      "inputs": [],
      "name": "getDefaultStats",
      "outputs": [
        {
          "components": [
            {
              "internalType": "string",
              "name": "label",
              "type": "string"
            },
            {
              "internalType": "uint256",
              "name": "populationCap",
              "type": "uint256"
            },
            {
              "internalType": "uint256",
              "name": "populationGrowth",
              "type": "uint256"
            },
            {
              "internalType": "uint256",
              "name": "range",
              "type": "uint256"
            },
            {
              "internalType": "uint256",
              "name": "speed",
              "type": "uint256"
            },
            {
              "internalType": "uint256",
              "name": "defense",
              "type": "uint256"
            },
            {
              "internalType": "uint256",
              "name": "silverGrowth",
              "type": "uint256"
            },
            {
              "internalType": "uint256",
              "name": "silverCap",
              "type": "uint256"
            },
            {
              "internalType": "uint256",
              "name": "barbarianPercentage",
              "type": "uint256"
            }
          ],
          "internalType": "struct DarkForestTypes.PlanetDefaultStats[]",
          "name": "",
          "type": "tuple[]"
        }
      ],
      "stateMutability": "view",
      "type": "function"
    },
    {
      "inputs": [],
      "name": "getNPlanets",
      "outputs": [
        {
          "internalType": "uint256",
          "name": "",
          "type": "uint256"
        }
      ],
      "stateMutability": "view",
      "type": "function"
    },
    {
      "inputs": [],
      "name": "getNPlayers",
      "outputs": [
        {
          "internalType": "uint256",
          "name": "",
          "type": "uint256"
        }
      ],
      "stateMutability": "view",
      "type": "function"
    },
    {
      "inputs": [
        {
          "internalType": "uint256",
          "name": "_location",
          "type": "uint256"
        }
      ],
      "name": "getPlanetArrivals",
      "outputs": [
        {
          "components": [
            {
              "internalType": "uint256",
              "name": "id",
              "type": "uint256"
            },
            {
              "internalType": "address",
              "name": "player",
              "type": "address"
            },
            {
              "internalType": "uint256",
              "name": "fromPlanet",
              "type": "uint256"
            },
            {
              "internalType": "uint256",
              "name": "toPlanet",
              "type": "uint256"
            },
            {
              "internalType": "uint256",
              "name": "popArriving",
              "type": "uint256"
            },
            {
              "internalType": "uint256",
              "name": "silverMoved",
              "type": "uint256"
            },
            {
              "internalType": "uint256",
              "name": "departureTime",
              "type": "uint256"
            },
            {
              "internalType": "uint256",
              "name": "arrivalTime",
              "type": "uint256"
            }
          ],
          "internalType": "struct DarkForestTypes.ArrivalData[]",
          "name": "ret",
          "type": "tuple[]"
        }
      ],
      "stateMutability": "view",
      "type": "function"
    },
    {
      "inputs": [],
      "name": "getPlanetCumulativeRarities",
      "outputs": [
        {
          "internalType": "uint256[]",
          "name": "",
          "type": "uint256[]"
        }
      ],
      "stateMutability": "view",
      "type": "function"
    },
    {
      "inputs": [],
      "name": "getPlanetLevelThresholds",
      "outputs": [
        {
          "internalType": "uint256[]",
          "name": "",
          "type": "uint256[]"
        }
      ],
      "stateMutability": "view",
      "type": "function"
    },
    {
      "inputs": [
        {
          "internalType": "address",
          "name": "playerId",
          "type": "address"
        }
      ],
      "name": "getPlayerArtifactIds",
      "outputs": [
        {
          "internalType": "uint256[]",
          "name": "",
          "type": "uint256[]"
        }
      ],
      "stateMutability": "view",
      "type": "function"
    },
    {
      "inputs": [],
      "name": "getUpgrades",
      "outputs": [
        {
          "components": [
            {
              "internalType": "uint256",
              "name": "popCapMultiplier",
              "type": "uint256"
            },
            {
              "internalType": "uint256",
              "name": "popGroMultiplier",
              "type": "uint256"
            },
            {
              "internalType": "uint256",
              "name": "rangeMultiplier",
              "type": "uint256"
            },
            {
              "internalType": "uint256",
              "name": "speedMultiplier",
              "type": "uint256"
            },
            {
              "internalType": "uint256",
              "name": "defMultiplier",
              "type": "uint256"
            }
          ],
          "internalType": "struct DarkForestTypes.Upgrade[4][3]",
          "name": "",
          "type": "tuple[4][3]"
        }
      ],
      "stateMutability": "view",
      "type": "function"
    },
    {
      "inputs": [
        {
          "internalType": "address",
          "name": "_adminAddress",
          "type": "address"
        },
        {
          "internalType": "address payable",
          "name": "_whitelistAddress",
          "type": "address"
        },
        {
          "internalType": "address payable",
          "name": "_tokensAddress",
          "type": "address"
        },
        {
          "internalType": "bool",
          "name": "_disableZKCheck",
          "type": "bool"
        }
      ],
      "name": "initialize",
      "outputs": [],
      "stateMutability": "nonpayable",
      "type": "function"
    },
    {
      "inputs": [
        {
          "internalType": "uint256[2]",
          "name": "_a",
          "type": "uint256[2]"
        },
        {
          "internalType": "uint256[2][2]",
          "name": "_b",
          "type": "uint256[2][2]"
        },
        {
          "internalType": "uint256[2]",
          "name": "_c",
          "type": "uint256[2]"
        },
        {
          "internalType": "uint256[3]",
          "name": "_input",
          "type": "uint256[3]"
        }
      ],
      "name": "initializePlayer",
      "outputs": [
        {
          "internalType": "uint256",
          "name": "",
          "type": "uint256"
        }
      ],
      "stateMutability": "nonpayable",
      "type": "function"
    },
    {
      "inputs": [
        {
          "internalType": "uint256",
          "name": "",
          "type": "uint256"
        }
      ],
      "name": "initializedPlanetCountByLevel",
      "outputs": [
        {
          "internalType": "uint256",
          "name": "",
          "type": "uint256"
        }
      ],
      "stateMutability": "view",
      "type": "function"
    },
    {
      "inputs": [
        {
          "internalType": "address",
          "name": "",
          "type": "address"
        }
      ],
      "name": "isPlayerInitialized",
      "outputs": [
        {
          "internalType": "bool",
          "name": "",
          "type": "bool"
        }
      ],
      "stateMutability": "view",
      "type": "function"
    },
    {
      "inputs": [
        {
          "internalType": "uint256[2]",
          "name": "_a",
          "type": "uint256[2]"
        },
        {
          "internalType": "uint256[2][2]",
          "name": "_b",
          "type": "uint256[2][2]"
        },
        {
          "internalType": "uint256[2]",
          "name": "_c",
          "type": "uint256[2]"
        },
        {
          "internalType": "uint256[7]",
          "name": "_input",
          "type": "uint256[7]"
        }
      ],
      "name": "move",
      "outputs": [
        {
          "internalType": "uint256",
          "name": "",
          "type": "uint256"
        }
      ],
      "stateMutability": "nonpayable",
      "type": "function"
    },
    {
      "inputs": [],
      "name": "pause",
      "outputs": [],
      "stateMutability": "nonpayable",
      "type": "function"
    },
    {
      "inputs": [],
      "name": "paused",
      "outputs": [
        {
          "internalType": "bool",
          "name": "",
          "type": "bool"
        }
      ],
      "stateMutability": "view",
      "type": "function"
    },
    {
      "inputs": [
        {
          "internalType": "uint256",
          "name": "",
          "type": "uint256"
        }
      ],
      "name": "planetArrivals",
      "outputs": [
        {
          "internalType": "uint256",
          "name": "id",
          "type": "uint256"
        },
        {
          "internalType": "address",
          "name": "player",
          "type": "address"
        },
        {
          "internalType": "uint256",
          "name": "fromPlanet",
          "type": "uint256"
        },
        {
          "internalType": "uint256",
          "name": "toPlanet",
          "type": "uint256"
        },
        {
          "internalType": "uint256",
          "name": "popArriving",
          "type": "uint256"
        },
        {
          "internalType": "uint256",
          "name": "silverMoved",
          "type": "uint256"
        },
        {
          "internalType": "uint256",
          "name": "departureTime",
          "type": "uint256"
        },
        {
          "internalType": "uint256",
          "name": "arrivalTime",
          "type": "uint256"
        }
      ],
      "stateMutability": "view",
      "type": "function"
    },
    {
      "inputs": [
        {
          "internalType": "uint256",
          "name": "",
          "type": "uint256"
        }
      ],
      "name": "planetDefaultStats",
      "outputs": [
        {
          "internalType": "string",
          "name": "label",
          "type": "string"
        },
        {
          "internalType": "uint256",
          "name": "populationCap",
          "type": "uint256"
        },
        {
          "internalType": "uint256",
          "name": "populationGrowth",
          "type": "uint256"
        },
        {
          "internalType": "uint256",
          "name": "range",
          "type": "uint256"
        },
        {
          "internalType": "uint256",
          "name": "speed",
          "type": "uint256"
        },
        {
          "internalType": "uint256",
          "name": "defense",
          "type": "uint256"
        },
        {
          "internalType": "uint256",
          "name": "silverGrowth",
          "type": "uint256"
        },
        {
          "internalType": "uint256",
          "name": "silverCap",
          "type": "uint256"
        },
        {
          "internalType": "uint256",
          "name": "barbarianPercentage",
          "type": "uint256"
        }
      ],
      "stateMutability": "view",
      "type": "function"
    },
    {
      "inputs": [
        {
          "internalType": "uint256",
          "name": "",
          "type": "uint256"
        },
        {
          "internalType": "uint256",
          "name": "",
          "type": "uint256"
        }
      ],
      "name": "planetEvents",
      "outputs": [
        {
          "internalType": "uint256",
          "name": "id",
          "type": "uint256"
        },
        {
          "internalType": "enum DarkForestTypes.PlanetEventType",
          "name": "eventType",
          "type": "uint8"
        },
        {
          "internalType": "uint256",
          "name": "timeTrigger",
          "type": "uint256"
        },
        {
          "internalType": "uint256",
          "name": "timeAdded",
          "type": "uint256"
        }
      ],
      "stateMutability": "view",
      "type": "function"
    },
    {
      "inputs": [],
      "name": "planetEventsCount",
      "outputs": [
        {
          "internalType": "uint256",
          "name": "",
          "type": "uint256"
        }
      ],
      "stateMutability": "view",
      "type": "function"
    },
    {
      "inputs": [
        {
          "internalType": "uint256",
          "name": "",
          "type": "uint256"
        }
      ],
      "name": "planetIds",
      "outputs": [
        {
          "internalType": "uint256",
          "name": "",
          "type": "uint256"
        }
      ],
      "stateMutability": "view",
      "type": "function"
    },
    {
      "inputs": [
        {
          "internalType": "uint256",
          "name": "",
          "type": "uint256"
        }
      ],
      "name": "planetLevelThresholds",
      "outputs": [
        {
          "internalType": "uint256",
          "name": "",
          "type": "uint256"
        }
      ],
      "stateMutability": "view",
      "type": "function"
    },
    {
      "inputs": [
        {
          "internalType": "uint256",
          "name": "",
          "type": "uint256"
        }
      ],
      "name": "planets",
      "outputs": [
        {
          "internalType": "address",
          "name": "owner",
          "type": "address"
        },
        {
          "internalType": "uint256",
          "name": "range",
          "type": "uint256"
        },
        {
          "internalType": "uint256",
          "name": "speed",
          "type": "uint256"
        },
        {
          "internalType": "uint256",
          "name": "defense",
          "type": "uint256"
        },
        {
          "internalType": "uint256",
          "name": "population",
          "type": "uint256"
        },
        {
          "internalType": "uint256",
          "name": "populationCap",
          "type": "uint256"
        },
        {
          "internalType": "uint256",
          "name": "populationGrowth",
          "type": "uint256"
        },
        {
          "internalType": "enum DarkForestTypes.PlanetResource",
          "name": "planetResource",
          "type": "uint8"
        },
        {
          "internalType": "uint256",
          "name": "silverCap",
          "type": "uint256"
        },
        {
          "internalType": "uint256",
          "name": "silverGrowth",
          "type": "uint256"
        },
        {
          "internalType": "uint256",
          "name": "silver",
          "type": "uint256"
        },
        {
          "internalType": "uint256",
          "name": "planetLevel",
          "type": "uint256"
        }
      ],
      "stateMutability": "view",
      "type": "function"
    },
    {
      "inputs": [
        {
          "internalType": "uint256",
          "name": "",
          "type": "uint256"
        }
      ],
      "name": "planetsExtendedInfo",
      "outputs": [
        {
          "internalType": "bool",
          "name": "isInitialized",
          "type": "bool"
        },
        {
          "internalType": "uint256",
          "name": "createdAt",
          "type": "uint256"
        },
        {
          "internalType": "uint256",
          "name": "lastUpdated",
          "type": "uint256"
        },
        {
          "internalType": "uint256",
          "name": "perlin",
          "type": "uint256"
        },
        {
          "internalType": "enum DarkForestTypes.SpaceType",
          "name": "spaceType",
          "type": "uint8"
        },
        {
          "internalType": "uint256",
          "name": "upgradeState0",
          "type": "uint256"
        },
        {
          "internalType": "uint256",
          "name": "upgradeState1",
          "type": "uint256"
        },
        {
          "internalType": "uint256",
          "name": "upgradeState2",
          "type": "uint256"
        },
        {
          "internalType": "uint256",
          "name": "hatLevel",
          "type": "uint256"
        },
        {
          "internalType": "bool",
          "name": "hasTriedFindingArtifact",
          "type": "bool"
        },
        {
          "internalType": "uint256",
          "name": "heldArtifactId",
          "type": "uint256"
        },
        {
          "internalType": "uint256",
          "name": "artifactLockedTimestamp",
          "type": "uint256"
        }
      ],
      "stateMutability": "view",
      "type": "function"
    },
    {
      "inputs": [
        {
          "internalType": "uint256",
          "name": "",
          "type": "uint256"
        }
      ],
      "name": "playerIds",
      "outputs": [
        {
          "internalType": "address",
          "name": "",
          "type": "address"
        }
      ],
      "stateMutability": "view",
      "type": "function"
    },
    {
      "inputs": [
        {
          "internalType": "uint256",
          "name": "_location",
          "type": "uint256"
        }
      ],
      "name": "refreshPlanet",
      "outputs": [],
      "stateMutability": "nonpayable",
      "type": "function"
    },
    {
      "inputs": [
        {
          "internalType": "uint256",
          "name": "_location",
          "type": "uint256"
        },
        {
          "internalType": "address",
          "name": "_player",
          "type": "address"
        }
      ],
      "name": "transferOwnership",
      "outputs": [],
      "stateMutability": "nonpayable",
      "type": "function"
    },
    {
      "inputs": [],
      "name": "unpause",
      "outputs": [],
      "stateMutability": "nonpayable",
      "type": "function"
    },
    {
      "inputs": [
        {
          "internalType": "uint256",
          "name": "_location",
          "type": "uint256"
        },
        {
          "internalType": "uint256",
          "name": "_branch",
          "type": "uint256"
        }
      ],
      "name": "upgradePlanet",
      "outputs": [
        {
          "internalType": "uint256",
          "name": "",
          "type": "uint256"
        },
        {
          "internalType": "uint256",
          "name": "",
          "type": "uint256"
        }
      ],
      "stateMutability": "nonpayable",
      "type": "function"
    },
    {
      "inputs": [
        {
          "internalType": "uint256",
          "name": "",
          "type": "uint256"
        },
        {
          "internalType": "uint256",
          "name": "",
          "type": "uint256"
        }
      ],
      "name": "upgrades",
      "outputs": [
        {
          "internalType": "uint256",
          "name": "popCapMultiplier",
          "type": "uint256"
        },
        {
          "internalType": "uint256",
          "name": "popGroMultiplier",
          "type": "uint256"
        },
        {
          "internalType": "uint256",
          "name": "rangeMultiplier",
          "type": "uint256"
        },
        {
          "internalType": "uint256",
          "name": "speedMultiplier",
          "type": "uint256"
        },
        {
          "internalType": "uint256",
          "name": "defMultiplier",
          "type": "uint256"
        }
      ],
      "stateMutability": "view",
      "type": "function"
    },
    {
      "inputs": [],
      "name": "withdraw",
      "outputs": [],
      "stateMutability": "nonpayable",
      "type": "function"
    },
    {
      "inputs": [
        {
          "internalType": "uint256",
          "name": "locationId",
          "type": "uint256"
        }
      ],
      "name": "withdrawArtifact",
      "outputs": [],
      "stateMutability": "nonpayable",
      "type": "function"
    },
    {
      "inputs": [],
      "name": "worldRadius",
      "outputs": [
        {
          "internalType": "uint256",
          "name": "",
          "type": "uint256"
        }
      ],
      "stateMutability": "view",
      "type": "function"
    }
  ],
  "bytecode": "0x608060405234801561001057600080fd5b50615e2d80620000216000396000f3fe6080604052600436106102e15760e060020a600035046304d74a3981146102e657806305b86be51461031c57806306fa84c61461033e5780630767751a1461036057806308d2e95a146103805780630ad98d41146103a25780630af80778146103c457806310d4abf2146103e45780631e4abc3a146103a25780631f2836b7146104045780631f94f54014610424578063221f77641461045157806326c1e7501461047157806329507f73146104a9578063314d1ff7146104c95780633ccfd60b146104e95780633f324cf3146104fe5780633f4ba83a1461051e5780633f9d7c491461053357806340a72788146105605780634eb0e959146105805780635c975abb146105955780636306a122146105aa578063695bd00c146105d75780636b2f112c146105f95780636c7ffeec1461060e5780636df0a9061461063b57806373a853811461065057806374b991061461067e57806376af38b41461069357806378622ae6146106c757806378d1742b146106e757806378d4ce95146106fc5780638456cb591461071c5780638a05b329146107315780638af9d562146107465780638f2839701461075b5780639184f0b61461077b57806392d93a121461079b5780639759d15f146107bb578063975de613146107db57806397dbb6fa1461063b57806398f94a8e146108085780639fd4d4d414610828578063aaca42e91461083b578063ab2303211461085b578063ad4890911461088b578063b5549e64146108ab578063bb4908f2146108e0578063c012b112146108f5578063c4c3cfaa14610922578063c68b812614610942578063c8d503ea14610957578063c935949114610977578063ccf738e9146109a8578063ce02f43b146109e0578063d3acb0c314610a00578063dacb613514610a15578063de2edb9114610a42578063e654848a14610a57578063f6e46b6014610a84578063f9231d9214610a99578063fc6f946814610ac6578063fe80bb1214610adb578063fecf973414610af0575b600080fd5b3480156102f257600080fd5b50610306610301366004614ad3565b610b10565b60405161031391906150bf565b60405180910390f35b34801561032857600080fd5b50610331610c82565b6040516103139190615328565b34801561034a57600080fd5b5061035e610359366004614a4d565b610cda565b005b34801561036c57600080fd5b5061035e61037b366004614a4d565b610e6c565b34801561038c57600080fd5b50610395610eac565b6040516103139190615003565b3480156103ae57600080fd5b506103b7611043565b6040516103139190614d13565b3480156103d057600080fd5b506103b76103df3660046147ae565b611048565b3480156103f057600080fd5b506103b76103ff366004614a4d565b61142b565b34801561041057600080fd5b506103b761041f366004614a4d565b611449565b34801561043057600080fd5b5061044461043f366004614a4d565b611456565b604051610313919061537b565b34801561045d57600080fd5b506103b761046c366004614a4d565b6114e1565b34801561047d57600080fd5b5061049161048c366004614a4d565b6114ee565b6040516103139c9b9a99989796959493929190614d5f565b3480156104b557600080fd5b5061035e6104c4366004614a7d565b61155b565b3480156104d557600080fd5b506103316104e436600461461b565b6116cc565b3480156104f557600080fd5b5061035e611754565b34801561050a57600080fd5b5061035e610519366004614a4d565b6117b4565b34801561052a57600080fd5b5061035e6118fc565b34801561053f57600080fd5b5061055361054e366004614840565b61196d565b6040516103139190614e23565b34801561056c57600080fd5b5061055361057b366004614ad3565b611a0c565b34801561058c57600080fd5b506103b7611aa9565b3480156105a157600080fd5b50610444611aaf565b3480156105b657600080fd5b506105ca6105c5366004614840565b611abf565b6040516103139190614f36565b3480156105e357600080fd5b506105ec611e01565b6040516103139190614e83565b34801561060557600080fd5b506103b7611eb1565b34801561061a57600080fd5b5061062e610629366004614ad3565b611eb7565b6040516103139190614dd6565b34801561064757600080fd5b506103b7611f61565b34801561065c57600080fd5b5061067061066b366004614ad3565b611f66565b604051610313929190615c85565b34801561068a57600080fd5b506103b7612058565b34801561069f57600080fd5b506106b36106ae366004614a4d565b61205d565b604051610313989796959493929190615bf7565b3480156106d357600080fd5b506103066106e2366004614840565b6120aa565b3480156106f357600080fd5b5061033161220d565b34801561070857600080fd5b506103b761071736600461470e565b612263565b34801561072857600080fd5b5061035e612584565b34801561073d57600080fd5b506103b76125fc565b34801561075257600080fd5b50610444612602565b34801561076757600080fd5b5061035e61077636600461461b565b612612565b34801561078757600080fd5b5061044461079636600461461b565b612698565b3480156107a757600080fd5b5061035e6107b6366004614ad3565b6126ad565b3480156107c757600080fd5b5061035e6107d63660046146b5565b6128e5565b3480156107e757600080fd5b506107fb6107f6366004614ad3565b612d4d565b6040516103139190615186565b34801561081457600080fd5b506107fb610823366004614840565b612ec5565b61035e610836366004614a4d565b613035565b34801561084757600080fd5b50610331610856366004614ad3565b613137565b34801561086757600080fd5b5061087b610876366004614ad3565b6131c1565b6040516103139493929190615c36565b34801561089757600080fd5b506103b76108a6366004614a4d565b613207565b3480156108b757600080fd5b506108cb6108c6366004614a4d565b613214565b60405161031399989796959493929190615482565b3480156108ec57600080fd5b506103b76132f4565b34801561090157600080fd5b50610915610910366004614a4d565b6132fa565b6040516103139190614d32565b34801561092e57600080fd5b506103b761093d366004614a4d565b613321565b34801561094e57600080fd5b506103b7613333565b34801561096357600080fd5b50610444610972366004614a4d565b613339565b34801561098357600080fd5b50610997610992366004614ad3565b61335c565b604051610313959493929190615c62565b3480156109b457600080fd5b506109c86109c3366004614a4d565b61339e565b6040516103139c9b9a99989796959493929190615386565b3480156109ec57600080fd5b5061035e6109fb366004614a4d565b613406565b348015610a0c57600080fd5b506103b761343e565b348015610a2157600080fd5b50610a35610a30366004614a4d565b613443565b6040516103139190614ee0565b348015610a4e57600080fd5b506103b7613628565b348015610a6357600080fd5b50610a77610a72366004614840565b61362e565b6040516103139190614ef3565b348015610a9057600080fd5b506103b76138a2565b348015610aa557600080fd5b50610ab9610ab4366004614a4d565b6138a7565b6040516103139190615afa565b348015610ad257600080fd5b50610915613a9a565b348015610ae757600080fd5b506103b7613aaf565b348015610afc57600080fd5b5061035e610b0b36600461465a565b613ab4565b60608282036001604060020a0381118015610b2a57600080fd5b50604051908082528060200260200182016040528015610b6457816020015b610b51614193565b815260200190600190039081610b495790505b509050825b82811015610c7b57604a600060458381548110610b8257fe5b90600052602060002001548152602001908152602001600020604051806101800160405290816000820160009054906101000a900460ff161515151581526020016001820154815260200160028201548152602001600382015481526020016004820160009054906101000a900460ff166002811115610bfe57fe5b6002811115610c0957fe5b815260058201546020820152600682015460408201526007820154606082015260088201546080820152600982015460ff16151560a0820152600a82015460c0820152600b9091015460e09091015282518390868403908110610c6857fe5b6020908102919091010152600101610b69565b5092915050565b60606003805480602002602001604051908101604052809291908181526020018280548015610cd057602002820191906000526020600020905b815481526020019060010190808311610cbc575b5050505050905090565b60025460a060020a900460ff1615610d105760405160e560020a62461bcd028152600401610d07906159bf565b60405180910390fd5b610d19816117b4565b6000818152604960209081526040808320604a909252909120600a8101548254600160a060020a03163314610d635760405160e560020a62461bcd028152600401610d0790615903565b80610d835760405160e560020a62461bcd028152600401610d0790615609565b61a8c082600b0154014211610dad5760405160e560020a62461bcd028152600401610d07906159ea565b60025460405160e360020a6291d47502815273__DarkForestPlanet______________________9163048ea3a891610dfa91600160a060020a031690309088908890604c906004016153f5565b60006040518083038186803b158015610e1257600080fd5b505af4158015610e26573d6000803e3d6000fd5b505050507fddc1c4f50c95d59676181cc235531a664d4d990a0d585408c1fb89bacca2fbc4843383604051610e5d93929190615b85565b60405180910390a15050505b50565b600054620100009004600160a060020a03163314610e9f5760405160e560020a62461bcd028152600401610d0790615723565b6044819055610e69613d98565b60035460609081906001604060020a0381118015610ec957600080fd5b50604051908082528060200260200182016040528015610f0357816020015b610ef0614203565b815260200190600190039081610ee85790505b50905060005b60035481101561103d5760068181548110610f2057fe5b600091825260209182902060408051600993909302909101805460026001821615610100026000190190911604601f81018590049094028301610140908101909252610120830184815292939092849290918491840182828015610fc55780601f10610f9a57610100808354040283529160200191610fc5565b820191906000526020600020905b815481529060010190602001808311610fa857829003601f168201915b505050505081526020016001820154815260200160028201548152602001600382015481526020016004820154815260200160058201548152602001600682015481526020016007820154815260200160088201548152505082828151811061102a57fe5b6020908102919091010152600101610f09565b50905090565b600881565b60025460009060a060020a900460ff16156110785760405160e560020a62461bcd028152600401610d07906159bf565b8151602083015160408401516060850151608086015160a087015160c088015160025460a860020a900460ff1661118b576110b161424f565b6040518060a0016040528089815260200188815260200187815260200186815260200185815250905073__Verifier______________________________63275abc628e8e8e856040518563ffffffff1660e060020a02815260040161111a94939291906152d7565b60206040518083038186803b15801561113257600080fd5b505af4158015611146573d6000803e3d6000fd5b505050506040513d601f19601f8201168201806040525081019061116a9190614942565b6111895760405160e560020a62461bcd028152600401610d07906158cf565b505b6047548411156111b05760405160e560020a62461bcd028152600401610d0790615a42565b6000868152604a602052604090205460ff166111d7576111d286866000613e32565b61133c565b6111e0866117b4565b60008060005b6000898152604d602052604090205460ff821610156112c8576000898152604d60205260408120805460ff841690811061121c57fe5b600091825260209091206001600490920201015460ff16801561123b57fe5b14156112c057600089815260496020908152604080832054604d90925282208054600160a060020a0390921692604e9290919060ff861690811061127b57fe5b600091825260208083206004909202909101548352820192909252604001902060010154600160a060020a031614156112b9576001909201916112c0565b6001909101905b6001016111e6565b50600088815260496020526040902054600160a060020a03163314156113135760068260ff161061130e5760405160e560020a62461bcd028152600401610d07906155af565b611339565b60068160ff16106113395760405160e560020a62461bcd028152600401610d07906155af565b50505b611345876117b4565b60485460405160e360020a6306e5297d02815273__DarkForestPlanet______________________916337294be891611396918b918b91899189918991604990604a90604d90604e90600401615ceb565b60006040518083038186803b1580156113ae57600080fd5b505af41580156113c2573d6000803e3d6000fd5b5050604880546001019055506113d89050613d98565b7f73589d8f04c4286010ba8cbf687f804de4f668cb96b2d8c73f310ceb90a48fc060016048540360405161140c9190614d13565b60405180910390a15050604854600019019a9950505050505050505050565b6004818154811061143857fe5b600091825260209091200154905081565b6005818154811061143857fe5b60025460405160e660020a627e53d5028152600091600160a060020a031690631f94f54090611489908590600401614d13565b60206040518083038186803b1580156114a157600080fd5b505afa1580156114b5573d6000803e3d6000fd5b505050506040513d601f19601f820116820180604052508101906114d99190614942565b90505b919050565b6003818154811061143857fe5b604960205260009081526040902080546001820154600283015460038401546004850154600586015460068701546007880154600889015460098a0154600a8b0154600b909b0154600160a060020a03909a169a98999798969795969495939460ff90931693919290918c565b60025460a060020a900460ff16156115885760405160e560020a62461bcd028152600401610d07906159bf565b6000828152604a602052604090205460ff1615156001146115be5760405160e560020a62461bcd028152600401610d07906156c5565b6115c7826117b4565b600082815260496020526040902054600160a060020a031633146116005760405160e560020a62461bcd028152600401610d079061565d565b600160a060020a03811633141561162c5760405160e560020a62461bcd028152600401610d0790615a77565b600160a060020a0381166000908152604b602052604090205460ff166116675760405160e560020a62461bcd028152600401610d0790615631565b600082815260496020526040908190208054600160a060020a031916600160a060020a038416179055517f0d6a4b16d4e1aee360d85f68ad11dd1fce957650322a72303f9d3f709aedc65f906116c09084908490615b6e565b60405180910390a15050565b60025460405160e060020a63314d1ff7028152606091600160a060020a03169063314d1ff790611700908590600401614d32565b60006040518083038186803b15801561171857600080fd5b505afa15801561172c573d6000803e3d6000fd5b505050506040513d6000823e601f3d908101601f191682016040526114d991908101906148ae565b600054620100009004600160a060020a031633146117875760405160e560020a62461bcd028152600401610d0790615723565b6040513390303180156108fc02916000818181858888f19350505050158015610e69573d6000803e3d6000fd5b60015460405160e060020a633af32abf028152600160a060020a0390911690633af32abf906117e7903390600401614d32565b60206040518083038186803b1580156117ff57600080fd5b505afa158015611813573d6000803e3d6000fd5b505050506040513d601f19601f820116820180604052508101906118379190614942565b6118565760405160e560020a62461bcd028152600401610d079061582d565b60025460a060020a900460ff16156118835760405160e560020a62461bcd028152600401610d07906159bf565b60405160e060020a63180287b702815273__DarkForestPlanet______________________9063180287b7906118c9908490604990604a90604d90604e90600401615c62565b60006040518083038186803b1580156118e157600080fd5b505af41580156118f5573d6000803e3d6000fd5b5050505050565b600054620100009004600160a060020a0316331461192f5760405160e560020a62461bcd028152600401610d0790615723565b60025460a060020a900460ff1661195b5760405160e560020a62461bcd028152600401610d0790615a0d565b6002805460a060020a60ff0219169055565b606080826001604060020a038111801561198657600080fd5b506040519080825280602002602001820160405280156119ba57816020015b60608152602001906001900390816119a55790505b50905060005b83811015611a02576119e38585838181106119d757fe5b90506020020135613443565b8282815181106119ef57fe5b60209081029190910101526001016119c0565b5090505b92915050565b6060808383036001604060020a0381118015611a2757600080fd5b50604051908082528060200260200182016040528015611a5b57816020015b6060815260200190600190039081611a465790505b509050835b83811015611a0257611a8860458281548110611a7857fe5b9060005260206000200154613443565b8286830381518110611a9657fe5b6020908102919091010152600101611a60565b60475481565b60025460a060020a900460ff1681565b6060816001604060020a0381118015611ad757600080fd5b50604051908082528060200260200182016040528015611b1157816020015b611afe61426d565b815260200190600190039081611af65790505b50905060005b82811015610c7b57611b276142e0565b604e6000868685818110611b3757fe5b60209081029290920135835250818101929092526040908101600020815161010081018352815481526001820154600160a060020a0316938101939093526002810154918301919091526003810154606083015260048101546080830152600581015460a0830152600681015460c08301526007015460e08201529050611bbc61432e565b604080830151600090815260496020908152908290208251610180810184528154600160a060020a03168152600180830154938201939093526002820154938101939093526003810154606084015260048101546080840152600581015460a0840152600681015460c08401526007810154909160e084019160ff1690811115611c4257fe5b6001811115611c4d57fe5b81526020016008820154815260200160098201548152602001600a8201548152602001600b820154815250509050611c8361432e565b6060808401516000908152604960209081526040918290208251610180810184528154600160a060020a031681526001808301549382019390935260028201549381019390935260038101549383019390935260048301546080830152600583015460a0830152600683015460c0830152600783015491929160e084019160ff90911690811115611d1057fe5b6001811115611d1b57fe5b81526020016008820154815260200160098201548152602001600a8201548152602001600b820154815250509050604051806101800160405280846080015181526020018460a0015181526020018460c0015181526020018460e001518152602001846040015181526020018360000151600160a060020a03168152602001836080015181526020018361014001518152602001846060015181526020018260000151600160a060020a0316815260200182608001518152602001826101400151815250858581518110611deb57fe5b6020908102919091010152505050600101611b17565b611e096143a3565b6040805160608101909152600760036000835b82821015611ea857604080516080810190915260148302850160046000835b82821015611e95578382600502016040518060a00160405290816000820154815260200160018201548152602001600282015481526020016003820154815260200160048201548152505081526020019060010190611e3b565b5050505081526020019060010190611e1c565b50505050905090565b61a8c081565b60608282036001604060020a0381118015611ed157600080fd5b50604051908082528060200260200182016040528015611efb578160200160208202803683370190505b509050825b82811015610c7b5760468181548110611f1557fe5b9060005260206000200160009054906101000a9004600160a060020a03168285830381518110611f4157fe5b600160a060020a0390921660209283029190910190910152600101611f00565b601181565b600254600090819060a060020a900460ff1615611f985760405160e560020a62461bcd028152600401610d07906159bf565b611fa1846117b4565b60405160e260020a633097022502815273__DarkForestPlanet______________________9063c25c089490611fe99087908790604990604a90600690600790600401615c93565b60006040518083038186803b15801561200157600080fd5b505af4158015612015573d6000803e3d6000fd5b505050507f1c3559377dd1e586346f593aa9785e8eea8298f2d2ce1c2ef50428563d8ba84c846040516120489190614d13565b60405180910390a1509192909150565b600481565b604e60205260009081526040902080546001820154600283015460038401546004850154600586015460068701546007909701549596600160a060020a0390951695939492939192909188565b6060816001604060020a03811180156120c257600080fd5b506040519080825280602002602001820160405280156120fc57816020015b6120e9614193565b8152602001906001900390816120e15790505b50905060005b82811015610c7b57604a600085858481811061211a57fe5b905060200201358152602001908152602001600020604051806101800160405290816000820160009054906101000a900460ff161515151581526020016001820154815260200160028201548152602001600382015481526020016004820160009054906101000a900460ff16600281111561219257fe5b600281111561219d57fe5b815260058201546020820152600682015460408201526007820154606082015260088201546080820152600982015460ff16151560a0820152600a82015460c0820152600b9091015460e09091015282518390839081106121fa57fe5b6020908102919091010152600101612102565b60606004805480602002602001604051908101604052809291908181526020018280548015610cd05760200282019190600052602060002090815481526020019060010190808311610cbc575050505050905090565b60015460405160e060020a633af32abf028152600091600160a060020a031690633af32abf90612297903390600401614d32565b60206040518083038186803b1580156122af57600080fd5b505afa1580156122c3573d6000803e3d6000fd5b505050506040513d601f19601f820116820180604052508101906122e79190614942565b6123065760405160e560020a62461bcd028152600401610d079061582d565b60025460a060020a900460ff16156123335760405160e560020a62461bcd028152600401610d07906159bf565b60025460a860020a900460ff166123f35760405160e260020a6323bfe25502815273__Verifier______________________________90638eff89549061238490889088908890889060040161527a565b60206040518083038186803b15801561239c57600080fd5b505af41580156123b0573d6000803e3d6000fd5b505050506040513d601f19601f820116820180604052508101906123d49190614942565b6123f35760405160e560020a62461bcd028152600401610d079061575a565b81516020830151604080850151604754915160e060020a63c519ebff028152909173__DarkForestPlanet______________________9163c519ebff9161244c91879187918791604b91604a9190600e90600401615cbb565b60206040518083038186803b15801561246457600080fd5b505af4158015612478573d6000803e3d6000fd5b505050506040513d601f19601f8201168201806040525081019061249c9190614942565b6124a557600080fd5b336000818152604b60205260408120805460ff1916600190811790915560468054808301825592527f128667f541fed74a8429f9d592c26c2c6a4beb9ae5ead9912c98b2595c8423109091018054600160a060020a0319169092179091556125109084908490613e32565b60008381526049602052604090208054600160a060020a0319163317815561c35060049091015561253f613d98565b7f5765df5ce7cf4175ef997923b4936159dcf3cea059434dab4643214d690a2b953384604051612570929190614d46565b60405180910390a150909695505050505050565b600054620100009004600160a060020a031633146125b75760405160e560020a62461bcd028152600401610d0790615723565b60025460a060020a900460ff16156125e45760405160e560020a62461bcd028152600401610d0790615a9f565b6002805460a060020a60ff02191660a060020a179055565b60465490565b60025460a860020a900460ff1681565b600054620100009004600160a060020a031633146126455760405160e560020a62461bcd028152600401610d0790615723565b600160a060020a03811661266e5760405160e560020a62461bcd028152600401610d07906154d6565b60008054600160a060020a0390921662010000026201000060b060020a0319909216919091179055565b604b6020526000908152604090205460ff1681565b60025460a060020a900460ff16156126da5760405160e560020a62461bcd028152600401610d07906159bf565b6126e3826117b4565b6000828152604960209081526040808320604a90925291829020600254925160e160020a6331a9108f028152919290913391600160a060020a031690636352211e90612733908790600401614d13565b60206040518083038186803b15801561274b57600080fd5b505afa15801561275f573d6000803e3d6000fd5b505050506040513d601f19601f82011682018060405250810190612783919061463e565b600160a060020a0316146127ac5760405160e560020a62461bcd028152600401610d079061578e565b8154600160a060020a031633146127d85760405160e560020a62461bcd028152600401610d0790615960565b600a810154156127fd5760405160e560020a62461bcd028152600401610d0790615ad2565b6000600783015460ff16600181111561281257fe5b146128325760405160e560020a62461bcd028152600401610d07906156fb565b60025460405160e060020a63911617cf02815273__DarkForestPlanet______________________9163911617cf9161288291600160a060020a0316908790899088908890604c90600401615426565b60006040518083038186803b15801561289a57600080fd5b505af41580156128ae573d6000803e3d6000fd5b505050507ff508c790301e4d7e4823721c6d7ad5d6cdfd3f3e84d27ad5c2793ec9fe4951e3843385604051610e5d93929190615b85565b60025460a060020a900460ff16156129125760405160e560020a62461bcd028152600401610d07906159bf565b60435442106129365760405160e560020a62461bcd028152600401610d0790615929565b80516020820151612946826117b4565b6000828152604960209081526040808320604a909252808320600480820154925160e060020a63953e393702815293949193919273__DarkForestUtils_______________________9263953e3937926129ac9260ff16918991600f9160119101615459565b60206040518083038186803b1580156129c457600080fd5b505af41580156129d8573d6000803e3d6000fd5b505050506040513d601f19601f820116820180604052508101906129fc919061495e565b60025490915060a860020a900460ff16612abf5760405160e360020a631b210ed102815273__Verifier______________________________9063d908768890612a50908c908c908c908c90600401615243565b60206040518083038186803b158015612a6857600080fd5b505af4158015612a7c573d6000803e3d6000fd5b505050506040513d601f19601f82011682018060405250810190612aa09190614942565b612abf5760405160e560020a62461bcd028152600401610d0790615694565b612acd8584600b015461403e565b612aec5760405160e560020a62461bcd028152600401610d0790615863565b600982015460ff1615612b145760405160e560020a62461bcd028152600401610d07906157b6565b8254600160a060020a03163314612b405760405160e560020a62461bcd028152600401610d079061555e565b605f8360050154846004015460640281612b5657fe5b0411612b775760405160e560020a62461bcd028152600401610d0790615532565b6000600784015460ff166001811115612b8c57fe5b14612bac5760405160e560020a62461bcd028152600401610d07906156fb565b60098201805460ff19166001179055604854600090612bcd9087908161408e565b9050600080612bdb836140c5565b91509150612be76143d0565b600254600b88015460405160e060020a631401ad89028152600160a060020a0390921691631401ad8991612c2a91889133918f919089908d908c90600401615ba4565b60e060405180830381600087803b158015612c4457600080fd5b505af1158015612c58573d6000803e3d6000fd5b505050506040513d601f19601f82011682018060405250810190612c7c919061497d565b600254815160405160e060020a63911617cf02815292935073__DarkForestPlanet______________________9263911617cf92612cd192600160a060020a03909116918e908d908d90604c90600401615426565b60006040518083038186803b158015612ce957600080fd5b505af4158015612cfd573d6000803e3d6000fd5b505082516040517fb882fef472efbe5eeca4c6dd514ead8a562083960308e38711de10161c66cad49350612d3592508c913391615b85565b60405180910390a15050505050505050505b50505050565b60608282036001604060020a0381118015612d6757600080fd5b50604051908082528060200260200182016040528015612da157816020015b612d8e61432e565b815260200190600190039081612d865790505b509050825b82811015610c7b576049600060458381548110612dbf57fe5b90600052602060002001548152602001908152602001600020604051806101800160405290816000820160009054906101000a9004600160a060020a0316600160a060020a0316600160a060020a031681526020016001820154815260200160028201548152602001600382015481526020016004820154815260200160058201548152602001600682015481526020016007820160009054906101000a900460ff166001811115612e6d57fe5b6001811115612e7857fe5b81526020016008820154815260200160098201548152602001600a8201548152602001600b820154815250508285830381518110612eb257fe5b6020908102919091010152600101612da6565b6060816001604060020a0381118015612edd57600080fd5b50604051908082528060200260200182016040528015612f1757816020015b612f0461432e565b815260200190600190039081612efc5790505b50905060005b82811015610c7b5760496000858584818110612f3557fe5b905060200201358152602001908152602001600020604051806101800160405290816000820160009054906101000a9004600160a060020a0316600160a060020a0316600160a060020a031681526020016001820154815260200160028201548152602001600382015481526020016004820154815260200160058201548152602001600682015481526020016007820160009054906101000a900460ff166001811115612fdf57fe5b6001811115612fea57fe5b81526020016008820154815260200160098201548152602001600a8201548152602001600b8201548152505082828151811061302257fe5b6020908102919091010152600101612f1d565b6000818152604a602052604090205460ff16151560011461306b5760405160e560020a62461bcd028152600401610d0790615631565b613074816117b4565b600081815260496020526040902054600160a060020a031633146130ad5760405160e560020a62461bcd028152600401610d07906155e2565b6000818152604a602052604090206008015460020a670de0b6b3a764000002348111156130ef5760405160e560020a62461bcd028152600401610d0790615509565b6000828152604a60205260409081902060080180546001019055517f444d0a208ac492e147b2e0e5ffeeb6e6be2c122d95f3da8f45e26868785c84eb906116c0908490614d13565b60608282036001604060020a038111801561315157600080fd5b5060405190808252806020026020018201604052801561317b578160200160208202803683370190505b509050825b82811015610c7b576045818154811061319557fe5b906000526020600020015482858303815181106131ae57fe5b6020908102919091010152600101613180565b604d60205281600052604060002081815481106131da57fe5b6000918252602090912060049091020180546001820154600283015460039093015491945060ff16925084565b6045818154811061143857fe5b6006818154811061322157fe5b60009182526020918290206009919091020180546040805160026001841615610100026000190190931692909204601f8101859004850283018501909152808252919350918391908301828280156132ba5780601f1061328f576101008083540402835291602001916132ba565b820191906000526020600020905b81548152906001019060200180831161329d57829003601f168201915b5050505050908060010154908060020154908060030154908060040154908060050154908060060154908060070154908060080154905089565b60485481565b6046818154811061330757fe5b600091825260209091200154600160a060020a0316905081565b604c6020526000908152604090205481565b60455490565b7dc19139cb84c680a6e14116da06056174a0cfa121e6e5c2450f87d64fc0001190565b6007826003811061336957fe5b60140201816004811061337857fe5b600502018054600182015460028301546003840154600490940154929550909350919085565b604a60205260009081526040902080546001820154600283015460038401546004850154600586015460068701546007880154600889015460098a0154600a8b0154600b909b015460ff9a8b169b999a9899979896871697959694959394929391909216918c565b600054620100009004600160a060020a031633146134395760405160e560020a62461bcd028152600401610d0790615723565b604355565b600f81565b60606000805b6000848152604d60205260409020548110156134ad576000848152604d6020526040812080548390811061347957fe5b600091825260209091206001600490920201015460ff16801561349857fe5b14156134a5576001820191505b600101613449565b50806001604060020a03811180156134c457600080fd5b506040519080825280602002602001820160405280156134fe57816020015b6134eb6142e0565b8152602001906001900390816134e35790505b5091506000805b6000858152604d6020526040902054811015613620576000858152604d6020526040812080548390811061353557fe5b600091825260209091206001600490920201015460ff16801561355457fe5b1415613618576000858152604d602052604081208054604e9291908490811061357957fe5b60009182526020808320600492830201548452838101949094526040928301909120825161010081018452815481526001820154600160a060020a031694810194909452600281015492840192909252600382015460608401528101546080830152600581015460a0830152600681015460c08301526007015460e0820152845185908490811061360657fe5b60209081029190910101526001909101905b600101613505565b505050919050565b61400081565b6060816001604060020a038111801561364657600080fd5b5060405190808252806020026020018201604052801561368057816020015b61366d614418565b8152602001906001900390816136655790505b50905060005b82811015610c7b576136966143d0565b600254600160a060020a0316638465ad448686858181106136b357fe5b905060200201356040518263ffffffff1660e060020a0281526004016136d99190614d13565b60e06040518083038186803b1580156136f157600080fd5b505afa158015613705573d6000803e3d6000fd5b505050506040513d601f19601f82011682018060405250810190613729919061497d565b905061373361444c565b60405160e260020a632e3b657102815273__DarkForestUtils_______________________9063b8ed95c49061376d908590600401615b09565b60a06040518083038186803b15801561378557600080fd5b505af4158015613799573d6000803e3d6000fd5b505050506040513d601f19601f820116820180604052508101906137bd91906149fc565b60408051608081018252848152602081018390526002548551835160e160020a6331a9108f028152949550919392840192600160a060020a0390911691636352211e9161380d9190600401614d13565b60206040518083038186803b15801561382557600080fd5b505afa158015613839573d6000803e3d6000fd5b505050506040513d601f19601f8201168201806040525081019061385d919061463e565b600160a060020a0316815283516000908152604c6020908152604090912054910152845185908590811061388d57fe5b60209081029190910101525050600101613686565b606481565b6138af614418565b6138b76143d0565b60025460405160e260020a6321196b51028152600160a060020a0390911690638465ad44906138ea908690600401614d13565b60e06040518083038186803b15801561390257600080fd5b505afa158015613916573d6000803e3d6000fd5b505050506040513d601f19601f8201168201806040525081019061393a919061497d565b905061394461444c565b60405160e260020a632e3b657102815273__DarkForestUtils_______________________9063b8ed95c49061397e908590600401615b09565b60a06040518083038186803b15801561399657600080fd5b505af41580156139aa573d6000803e3d6000fd5b505050506040513d601f19601f820116820180604052508101906139ce91906149fc565b60408051608081018252848152602081018390526002548551835160e160020a6331a9108f028152949550919392840192600160a060020a0390911691636352211e91613a1e9190600401614d13565b60206040518083038186803b158015613a3657600080fd5b505afa158015613a4a573d6000803e3d6000fd5b505050506040513d601f19601f82011682018060405250810190613a6e919061463e565b600160a060020a0316815292516000908152604c60209081526040909120549301929092525092915050565b600054620100009004600160a060020a031681565b600e81565b600054610100900460ff1680613acd5750613acd614144565b80613adb575060005460ff16155b613afa5760405160e560020a62461bcd028152600401610d07906157dc565b600054610100900460ff16158015613b25576000805460ff1961ff0019909116610100171660011790555b60008054600160a060020a0380881662010000026201000060b060020a03199092169190911790915560018054868316600160a060020a0319918216179091556002805485151560a860020a0260a060020a61ffff021994881691909316179290921617905563600ed33a604355610320604455604080516101008101825263010000008152623fffd06020820152620fffc4918101919091526203ffc1606082015261ffc06080820152613fc060a0820152610fc060c08201526103c060e0820152613bf690600390600861447b565b5060405160e060020a635dfd086d02815273__DarkForestInitialize__________________90635dfd086d90613c3290600690600401614d13565b60006040518083038186803b158015613c4a57600080fd5b505af4158015613c5e573d6000803e3d6000fd5b505060405160e060020a63e771ed6b02815273__DarkForestInitialize__________________925063e771ed6b9150613c9d90600790600401614d13565b60006040518083038186803b158015613cb557600080fd5b505af4158015613cc9573d6000803e3d6000fd5b50506040805161010081018252600080825260208201819052918101829052606081018290526080810182905260a0810182905260c0810182905260e0810191909152613d1c92506005915060086144ce565b5060005b600354811015613d7757600461400060038381548110613d3c57fe5b9060005260206000200154630100000081613d5357fe5b83546001818101865560009586526020909520929091049290920291015501613d20565b50613d80613d98565b80156118f5576000805461ff00191690555050505050565b60465460445460405160e460020a63044424cf02815273__DarkForestUtils_______________________926344424cf092613ddd9260059260049290918301615360565b60206040518083038186803b158015613df557600080fd5b505af4158015613e09573d6000803e3d6000fd5b505050506040513d601f19601f82011682018060405250810190613e2d9190614a65565b604755565b613e3b83613339565b613e5a5760405160e560020a62461bcd028152600401610d0790615988565b60008073__DarkForestUtils_______________________6339818ecc8686600e60116008806004600360066040518a63ffffffff1660e060020a028152600401613ead99989796959493929190615d30565b604080518083038186803b158015613ec457600080fd5b505af4158015613ed8573d6000803e3d6000fd5b505050506040513d601f19601f82011682018060405250810190613efc9190614aac565b915091508215613f27578115613f275760405160e560020a62461bcd028152600401610d0790615887565b6000858152604960209081526040808320604a9092529091206006805473__DarkForestPlanet______________________93639414ee04939092909187908110613f6e57fe5b9060005260206000209060090201886064600e6011898b8f6040518b63ffffffff1660e060020a028152600401613fae9a99989796959493929190615b17565b60006040518083038186803b158015613fc657600080fd5b505af4158015613fda573d6000803e3d6000fd5b505060458054600181810183556000929092527fa80a8fcc11760162f08bb091d2c9389d07f2b73d0e996161dfac6f1043b5fc0b018890556005805491935091508490811061402557fe5b6000918252602090912001805490910190555050505050565b60006060836040516020016140539190614d13565b6040516020818303038152906040529050600061407282600e8061414a565b9050601081108015614085575060018410155b95945050505050565b60008382846040516020016140a593929190614d1c565b60408051808303601f190181529190528051602090910120949350505050565b60008060ff808406906101008286030406600460408310156140e957506001614107565b60808310156140fa57506002614107565b60c0831015614107575060035b6000600483101561411a57506003614138565b601083101561412b57506002614138565b6040831015614138575060015b90945092505050915091565b303b1590565b6000825b82811161418b578083036101000a85828151811061416857fe5b60209101015160f860020a9081900481020460ff1602919091019060010161414e565b509392505050565b604051806101800160405280600015158152602001600081526020016000815260200160008152602001600060028111156141ca57fe5b81526020016000815260200160008152602001600081526020016000815260200160001515815260200160008152602001600081525090565b6040518061012001604052806060815260200160008152602001600081526020016000815260200160008152602001600081526020016000815260200160008152602001600081525090565b6040518060a001604052806005906020820280368337509192915050565b60405180610180016040528060008152602001600081526020016000815260200160008152602001600081526020016000600160a060020a031681526020016000815260200160008152602001600081526020016000600160a060020a0316815260200160008152602001600081525090565b604051806101000160405280600081526020016000600160a060020a031681526020016000815260200160008152602001600081526020016000815260200160008152602001600081525090565b6040518061018001604052806000600160a060020a031681526020016000815260200160008152602001600081526020016000815260200160008152602001600081526020016000600181111561438157fe5b8152602001600081526020016000815260200160008152602001600081525090565b60405180606001604052806003905b6143ba61450e565b8152602001906001900390816143b25790505090565b6040518060e00160405280600081526020016000815260200160008152602001600060098111156143fd57fe5b81526000602082018190526040820181905260609091015290565b604051806080016040528061442b6143d0565b815260200161443861444c565b815260006020820181905260409091015290565b6040518060a0016040528060008152602001600081526020016000815260200160008152602001600081525090565b8280548282559060005260206000209081019282156144be579160200282015b828111156144be578251829063ffffffff1690559160200191906001019061449b565b506144ca92915061453b565b5090565b8280548282559060005260206000209081019282156144be579160200282015b828111156144be578251829060ff169055916020019190600101906144ee565b60405180608001604052806004905b61452561444c565b81526020019060019003908161451d5790505090565b5b808211156144ca576000815560010161453c565b600082601f830112614560578081fd5b604061456b81615d6f565b915081838560808601111561457f57600080fd5b60005b60028110156145a95761459587836145b3565b835260209092019190830190600101614582565b5050505092915050565b600082601f8301126145c3578081fd5b6145cd6040615d6f565b90508082846040850111156145e157600080fd5b60005b60028110156146035781358352602092830192909101906001016145e4565b50505092915050565b805160058110611a0657600080fd5b60006020828403121561462c578081fd5b813561463781615dd4565b9392505050565b60006020828403121561464f578081fd5b815161463781615dd4565b6000806000806080858703121561466f578283fd5b843561467a81615dd4565b9350602085013561468a81615dd4565b9250604085013561469a81615dd4565b915060608501356146aa81615de9565b939692955090935050565b60008060008061014085870312156146cb578081fd5b6146d586866145b3565b93506146e48660408701614550565b92506146f38660c087016145b3565b91506147038661010087016145b3565b905092959194509250565b600080600080610160808688031215614725578283fd5b61472f87876145b3565b945061473e8760408801614550565b935061474d8760c088016145b3565b92508661011f87011261475e578182fd5b6147686060615d6f565b80610100880189848a01111561477c578485fd5b8493505b60038410156147a057803583526001939093019260209283019201614780565b509598949750929550505050565b6000806000806101e08086880312156147c5578283fd5b6147cf87876145b3565b94506147de8760408801614550565b93506147ed8760c088016145b3565b92508661011f8701126147fe578182fd5b61480860e0615d6f565b80610100880189848a01111561481c578485fd5b8493505b60078410156147a057803583526001939093019260209283019201614820565b60008060208385031215614852578182fd5b82356001604060020a0380821115614868578384fd5b818501915085601f83011261487b578384fd5b813581811115614889578485fd5b866020808302850101111561489c578485fd5b60209290920196919550909350505050565b600060208083850312156148c0578182fd5b82516001604060020a038111156148d5578283fd5b8301601f810185136148e5578283fd5b80516148f86148f382615d95565b615d6f565b8181528381019083850185840285018601891015614914578687fd5b8694505b83851015614936578051835260019490940193918501918501614918565b50979650505050505050565b600060208284031215614953578081fd5b815161463781615de9565b60006020828403121561496f578081fd5b8151600a8110614637578182fd5b600060e0828403121561498e578081fd5b61499860e0615d6f565b8251815260208301516020820152604083015160408201526060830151600a81106149c1578283fd5b60608201526080838101519082015260a08301516149de81615dd4565b60a08201526149f08460c0850161460c565b60c08201529392505050565b600060a08284031215614a0d578081fd5b614a1760a0615d6f565b82518152602083015160208201526040830151604082015260608301516060820152608083015160808201528091505092915050565b600060208284031215614a5e578081fd5b5035919050565b600060208284031215614a76578081fd5b5051919050565b60008060408385031215614a8f578182fd5b823591506020830135614aa181615dd4565b809150509250929050565b60008060408385031215614abe578182fd5b82519150602083015160028110614aa1578182fd5b60008060408385031215614ae5578182fd5b50508035926020909101359150565b600160a060020a03169052565b8060005b6002811015612d4757614b19848351614bbb565b6040939093019260209190910190600101614b05565b6000815180845260208085019450808401835b83811015614bb05781518051885283810151600160a060020a03168489015260408082015190890152606080820151908901526080808201519089015260a0808201519089015260c0808201519089015260e090810151908801526101009096019590820190600101614b42565b509495945050505050565b8060005b6002811015612d47578151845260209384019390910190600101614bbf565b15159052565b60028110614bee57fe5b9052565b614bee81615dca565b60008151808452815b81811015614c2057602081850181015186830182015201614c04565b81811115614c315782602083870101525b50601f01601f19169290920160200192915050565b614c51828251614c85565b6020810151614c6360e0840182614ce3565b506040810151600160a060020a0316610180830152606001516101a090910152565b805182526020810151602083015260408101516040830152614caa6060820151615dbf565b60608301526080818101519083015260a080820151600160a060020a03169083015260c0810151614cda90615db4565b60c08301525050565b80518252602081015160208301526040810151604083015260608101516060830152608081015160808301525050565b90815260200190565b9283526020830191909152604082015260600190565b600160a060020a0391909116815260200190565b600160a060020a03929092168252602082015260400190565b600160a060020a038d168152602081018c9052604081018b9052606081018a90526080810189905260a0810188905260c08101879052610180810160028710614da457fe5b60e082019690965261010081019490945261012084019290925261014083015261016090910152979650505050505050565b6020808252825182820181905260009190848201906040850190845b81811015614e17578351600160a060020a031683529284019291840191600101614df2565b50909695505050505050565b6000602080830181845280855180835260408601915060408482028701019250838701855b82811015614e7657603f19888603018452614e64858351614b2f565b94509285019290850190600101614e48565b5092979650505050505050565b610780810181836000805b60038110156145a957825184835b6004811015614ec657614eb0828451614ce3565b6020929092019160a09190910190600101614e9c565b505050610280939093019260209290920191600101614e8e565b6000602082526146376020830184614b2f565b6020808252825182820181905260009190848201906040850190845b81811015614e1757614f22838551614c46565b928401926101c09290920191600101614f0f565b602080825282518282018190526000919060409081850190868401855b82811015614ff65781518051855286810151878601528581015186860152606080820151908601526080808201519086015260a080820151614f9782880182614af4565b505060c0818101519086015260e08082015190860152610100808201519086015261012080820151614fcb82880182614af4565b5050610140818101519086015261016090810151908501526101809093019290850190600101614f53565b5091979650505050505050565b60208082528251828201819052600091906040908185019080840286018301878501865b838110156150b157603f198984030185528151610120815181865261504e82870182614bfb565b838b0151878c0152898401518a880152606080850151908801526080808501519088015260a0808501519088015260c0808501519088015260e0808501519088015261010093840151939096019290925250509386019390860190600101615027565b509098975050505050505050565b602080825282518282018190526000919060409081850190868401855b82811015614ff65781516150f1858251614bde565b808701518588015285810151868601526060808201519086015260808082015161511d82880182614bf2565b505060a0818101519086015260c0808201519086015260e0808201519086015261010080820151908601526101208082015161515b82880182614bde565b50506101408181015190860152610160908101519085015261018090930192908501906001016150dc565b602080825282518282018190526000919060409081850190868401855b82811015614ff65781516151b8858251614af4565b80870151858801528581015186860152606080820151908601526080808201519086015260a0808201519086015260c0808201519086015260e08082015161520282880182614be4565b5050610100818101519086015261012080820151908601526101408082015190860152610160908101519085015261018090930192908501906001016151a3565b61014081016152528287614bbb565b61525f6040830186614b01565b61526c60c0830185614bbb565b614085610100830184614bbb565b61016081016152898287614bbb565b6152966040830186614b01565b6152a360c0830185614bbb565b61010082018360005b60038110156152cb5781518352602092830192909101906001016152ac565b50505095945050505050565b6101a081016152e68287614bbb565b6152f36040830186614b01565b61530060c0830185614bbb565b61010082018360005b60058110156152cb578151835260209283019290910190600101615309565b6020808252825182820181905260009190848201906040850190845b81811015614e1757835183529284019291840191600101615344565b93845260208401929092526040830152606082015260800190565b901515815260200190565b6000610180820190508d151582528c60208301528b60408301528a60608301526153af8a615dca565b608082019990995260a081019790975260c087019590955260e0860193909352610100850191909152151561012084015261014083015261016090910152949350505050565b600160a060020a03958616815293909416602084015260408301919091526060820152608081019190915260a00190565b600160a060020a03969096168652602086019490945260408501929092526060840152608083015260a082015260c00190565b6080810161546686615dca565b9481526020810193909352604083019190915260609091015290565b60006101208083526154968184018d614bfb565b602084019b909b52505060408101979097526060870195909552608086019390935260a085019190915260c084015260e083015261010090910152919050565b6020808252601690820152605460020a7506e65774f776e65722063616e6e6f74206265203078302604082015260600190565b6020808252600c9082015260a260020a6b125b9cdd59999a58da595b9d02604082015260600190565b6020808252600f90820152608860020a6e6d7573742039352520656e6572677902604082015260600190565b6020808252602e908201527f796f752063616e206f6e6c792066696e6420617274696661637473206f6e20706040820152609160020a6d3630b732ba39903cb7ba9037bbb702606082015260800190565b6020808252601690820152605260020a75141b185b995d081a5cc81c985d194b5b1a5b5a5d195902604082015260600190565b6020808252600a9082015260b160020a6927b7363c9037bbb732b902604082015260600190565b6020808252600b9082015260aa60020a6a139bc8185c9d1a599858dd02604082015260600190565b6020808252600f90820152608a60020a6e1b9bdd081a5b9a5d1a585b1a5e995902604082015260600190565b6020808252601e908201527f4f6e6c79206f776e65722063616e207472616e7366657220706c616e65740000604082015260600190565b6020808252601490820152606260020a73189a5bdb59481e9ad4d3905492c819985a5b195902604082015260600190565b6020808252601990820152603a60020a78141b185b995d081a5cc81b9bdd081a5b9a5d1a585b1a5e995902604082015260600190565b6020808252600b9082015260a860020a6a73696c766572206d696e6502604082015260600190565b6020808252601b908201527f53656e646572206973206e6f7420612067616d65206d61737465720000000000604082015260600190565b6020808252601790820152604860020a764661696c656420696e69742070726f6f6620636865636b02604082015260600190565b6020808252600b9082015260a860020a6a6e6f7420796f757273203102604082015260600190565b602080825260099082015260ba60020a681c1b1d5b99195c995902604082015260600190565b6020808252602e908201527f496e697469616c697a61626c653a20636f6e747261637420697320616c7265616040820152609260020a6d191e481a5b9a5d1a585b1a5e995902606082015260800190565b6020808252601990820152603a60020a78141b185e595c881a5cc81b9bdd081dda1a5d195b1a5cdd195902604082015260600190565b602080825260079082015260ca60020a6618d85b881b9bdd02604082015260600190565b60208082526025908201527f43616e206f6e6c7920696e697469616c697a65206f6e20706c616e6574206c65604082015260dc60020a64076656c20302606082015260800190565b6020808252601790820152604860020a764661696c6564206d6f76652070726f6f6620636865636b02604082015260600190565b602080825260099082015260b860020a684e6f7420796f75727302604082015260600190565b6020808252601b908201527f546f6b656e206d696e7420706572696f642068617320656e6465640000000000604082015260600190565b6020808252600b9082015260a960020a6a3737ba103cb7bab939901902604082015260600190565b6020808252601b908201527f4e6f7420612076616c696420706c616e6574206c6f636174696f6e0000000000604082015260600190565b6020808252600e90820152609260020a6d11d85b59481a5cc81c185d5cd95902604082015260600190565b602080825260069082015260d460020a6506c6f636b75702604082015260600190565b6020808252601890820152604260020a7711d85b59481a5cc8185b1c9958591e481d5b9c185d5cd95902604082015260600190565b6020808252818101527f417474656d7074696e6720746f206d6f7665206f7574206f6620626f756e6473604082015260600190565b6020808252600b9082015260a960020a6a21b0b73737ba1039b2b63302604082015260600190565b6020808252601690820152605260020a7511d85b59481a5cc8185b1c9958591e481c185d5cd95902604082015260600190565b6020808252600b9082015260a860020a6a616c72656164792068617302604082015260600190565b6101c08101611a068284614c46565b60e08101611a068284614c85565b6000610140820190508b82528a60208301528960408301528860608301528760808301528660a08301528560c0830152615b5460e0830186614be4565b610100820193909352610120015298975050505050505050565b918252600160a060020a0316602082015260400190565b928352600160a060020a03919091166020830152604082015260600190565b878152600160a060020a038716602082015260408101869052606081018590526080810184905260e08101615bd884615dbf565b60a0830152615be683615db4565b60c083015298975050505050505050565b978852600160a060020a0396909616602088015260408701949094526060860192909252608085015260a084015260c083015260e08201526101000190565b8481526080810160018510615c4757fe5b84602083015283604083015282606083015295945050505050565b948552602085019390935260408401919091526060830152608082015260a00190565b918252602082015260400190565b958652602086019490945260408501929092526060840152608083015260a082015260c00190565b968752602087019590955260408601939093526060850191909152608084015260a083015260c082015260e00190565b998a5260208a019890985260408901969096526060880194909452608087019290925260a086015260c085015260e08401526101008301526101208201526101400190565b988952602089019790975260408801959095526060870193909352608086019190915260a085015260c084015260e08301526101008201526101200190565b6040518181016001604060020a0381118282101715615d8d57600080fd5b604052919050565b60006001604060020a03821115615daa578081fd5b5060209081020190565b80600581106114dc57fe5b80600a81106114dc57fe5b60038110610e6957fe5b600160a060020a0381168114610e6957600080fd5b8015158114610e6957600080fdfea2646970667358221220ce57e08c63645647ed2ad6f0b8ffda93588fca2b1a217cd65ef05c42f2cce21564736f6c634300060c0033",
  "compiler": {
    "name": "solc",
    "version": "0.6.12+commit.27d51765.Emscripten.clang",
    "optimizer": {
      "enabled": true,
      "runs": 1
    },
    "evmVersion": "byzantium"
  }
}